:100000000000032085040000D1040000D504000096
:10001000CD040000CD040000CD040000000000006D
:10002000000000000000000000000000D9040000F3
:10003000CD04000000000000DD040000E104000029
:10004000E5040000E9040000ED040000F1040000F4
:10005000F5040000F9040000FD04000001050000A3
:1000600005050000090500000D0500001105000050
:1000700015050000190500001D0500002105000000
:1000800025050000CD040000CD040000CD040000D3
:10009000CD040000CD040000CD040000CD0400001C
:1000A000290500002D050000310500003505000080
:1000B000390500003D050000410500004505000030
:1000C000490500004D0500005105000055050000E0
:1000D000590500005D05000061050000CD04000029
:1000E000CD040000CD040000CD040000CD040000CC
:1000F000CD040000CD040000CD040000CD040000BC
:1001000005110000CD040000CD040000CD04000066
:10011000CD040000CD040000CD040000CD0400009B
:10012000CD040000CD040000CD040000CD0400008B
:10013000CD040000CD040000CD040000CD0400007B
:10014000CD04000065050000F10900006D05000008
:100150007105000075050000CD040000CD0400000D
:10016000CD040000CD040000790500007D050000ED
:100170008105000085050000890500008D0500004F
:100180009105000095050000990500009D050000FF
:10019000A1050000A5050000CD040000CD0400006D
:1001A000CD040000CD040000CD040000CD0400000B
:1001B000CD040000CD040000CD040000CD040000FB
:1001C000CD040000CD040000CD040000CD040000EB
:1001D000CD040000CD040000CD040000CD040000DB
:1003F000CD040000CD040000CD040000FFFFFFFF8E
:10040000FFFFFFFFFFFFFFFFFFFFFFFFFEFFFFFFFD
:10041000154B002B08BF134B9D46A3F5803A0021D6
:100420008B460F461348144A121A03F095FD0F4BE2
:10043000002B00D098470E4B002B00D0984700208F
:10044000002104000D000D48002802D00C48AFF335
:10045000008003F05DFD2000290000F0E5FE03F0C0
:1004600031FD00BF00000800000003200000000074
:1004700000000000C000FF1FCCE9FF1F00000000CB
:100480000000000072B60A480A4901600A6882F357
:100490000888094880470949094A0A4B9A42BEBF61
:1004A00051F8040B42F8040BF8E762B6064880479F
:1004B00008ED00E000000000893B0000DC57000070
:1004C0000000FF1FB000FF1F11040000FFF7FEBF78
:1004D000354800473548004735480047354800470C
:1004E00035480047354800473548004735480047FC
:1004F00035480047354800473548004735480047EC
:1005000035480047354800473548004735480047DB
:1005100035480047354800473548004735480047CB
:1005200035480047354800473548004735480047BB
:1005300035480047354800473548004735480047AB
:10054000354800473548004735480047354800479B
:10055000354800473548004735480047354800478B
:10056000354800473548004735480047354800477B
:10057000354800473548004735480047354800476B
:100580003448004733480047324800473148004765
:10059000304800473048004730480047304800475F
:1005A0003048004730480047D1040000D50400001F
:1005B000D9040000DD040000E1040000393300002C
:1005C0004D330000613300007533000089330000B3
:1005D0009D330000B1330000C5330000D933000063
:1005E000ED33000001340000153400002934000010
:1005F0003D3400005134000065340000CD0400009B
:10060000CD040000CD040000392C00006D2C00004A
:10061000CD040000CD040000CD0400009D3A000090
:10062000CD040000C93A0000CD040000F53A0000F6
:10063000CD040000213B0000CD040000A12C0000EF
:100640004D3B0000CD040000793B0000CD040000CC
:10065000CD040000CD040000CD040000CD04000056
:10066000CD040000CD040000CD04000053B94AB908
:10067000002908BF00281CBF4FF0FF314FF0FF30AA
:1006800000F00CB8ADF1080C6DE904CE03F096FA59
:10069000DDF804E0DDE9022304B07047704700BFD5
:1006A00001F0FF01102A2BDB10F0070F08D010F823
:1006B000013B013A8B422DD010F0070F42B3F6D127
:1006C000F0B441EA012141EA014122F007047FF040
:1006D00000070023F0E80256083C85EA010586EA97
:1006E000010685FA47F5A3FA87F586FA47F6A5FAD3
:1006F00087F68EB9EED1F0BC01F0FF0102F00702DF
:1007000032B110F8013B013A83EA010313B1F8D189
:100710000020704701387047002D06BF354603386A
:10072000073815F0010F07D1013015F4807F02BFA3
:10073000013015F4C03F0130F0BC0138704700BFF4
:100740000348044B834202D0034B03B11847704760
:10075000B000FF1FB000FF1F000000000548064961
:10076000091A891001EBD171491002D0034B03B172
:1007700018477047B000FF1FB000FF1F00000000C7
:1007800010B5064C237843B9FFF7DAFF044B13B1D9
:100790000448AFF300800123237010BDC000FF1F89
:1007A00000000000B457000008B5054B1BB1054917
:1007B0000548AFF30080BDE80840FFF7CFBF00BF9A
:1007C00000000000C400FF1FB4570000C378027887
:1007D000DB0643EAC273027943EA82634278807897
:1007E000120702F0E0420004134300F47C101843A7
:1007F0007047000038B51546124A1348D2F8083140
:1008000023F00103C2F8083102F548220F4BD2F859
:1008100088101B688032012404FA03F30B439360B1
:100820000021224602F0D6FB04220021064802F0F5
:10083000D1FB22460421044802F0CCFB0DB1044B4D
:100840001C7038BD00700340008000400000FF1F96
:10085000A8A2FF1F38B51546124A1348D2F818311E
:1008600023F00103C2F8183102F548220F4BD2F8E9
:1008700088105B688032012404FA03F30B43936011
:100880002146224602F0A6FB04222146064802F039
:10089000A1FB22460521044802F09CFB0DB1044B4C
:1008A0001C7038BD00700340008000400000FF1F36
:1008B000A8A2FF1F38B51546124A1348D2F82831AE
:1008C00023F00103C2F8283102F548220F4BD2F879
:1008D00088109B688032012404FA03F30B43936071
:1008E0000221224602F076FB04220221064802F091
:1008F00071FB22460621044802F06CFB0DB1044B4B
:100900001C7038BD00700340008000400000FF1FD5
:10091000A8A2FF1F38B51546124A1348D2F838313D
:1009200023F00103C2F8383102F548220F4BD2F808
:100930008810DB688032012404FA03F30B439360D0
:100940000321224602F046FB04220321064802F05E
:1009500041FB22460821044802F03CFB0DB1044B48
:100960001C7038BD00700340008000400000FF1F75
:10097000A8A2FF1F10B51446154A1648136823F0A5
:1009800018031360144B9A6B144B0D21A3F8FE232C
:10099000012202F01FFB04220D210E4802F01AFB77
:1009A00001220C210B4802F015FB0D4A09480C21CD
:1009B00002F0A4F90B4802F02BFC0B4A05480D216C
:1009C00002F09CF914B1094B01221A7010BD00BF4E
:1009D000008003400080004000C00240DE00FF1F96
:1009E000C0E5FF1F00E5FF1F20E3FF1FA8A2FF1FB8
:1009F00038B50F4C204603F036F80E4AE1791068FE
:100A00000D4BC9B260B91C680C4D295519680131EC
:100A100019601968072902D901211160186038BDD1
:100A200007494FF480008860002119601160F6E7E3
:100A300000A00E4060E1FF1F5CE1FF1F54E1FF1FBB
:100A400040F00F40034B044ADA625863DA6A002A26
:100A5000FCDA704700C0024000000ADA10B50CB2A0
:100A600003EB840332F81420D3ED006A07EE902ADA
:100A70000028F8EE677A1DDA404200B207EE100A4D
:100A8000B8EEC77A87EE266A77EEC67AFCEEE77A8A
:100A900017EE903AC3EB42030D4A10680D4A32F844
:100AA00011209BB240F6FF718B4294BFD3185318AC
:100AB000184310BD07EE100AB8EEC77A87EE266A13
:100AC00077EEC67AFCEEE77A17EE903AE4E700BFDD
:100AD00040E3FF1F1000FF1FF0B50023164F174E15
:100AE000DFF864C01C4630F81450012D1FD006D327
:100AF000022D1ED016F804E005FA0EF52B43013442
:100B0000042CF0D143EA012352B10D490988012098
:100B10000E31083200FA01F100FA02F20A431343DF
:100B2000084A1068BDE8F0401843FFF78BBFE55D49
:100B3000E0E714F80C50DDE71800FF1F1C00FF1F52
:100B400080A2FF1F00E3FF1F2000FF1F2DE9F04FD1
:100B5000012991B083468A4605D0022900F087809A
:100B600011B0BDE8F08F4FF4FA6808FB00F3DFF82E
:100B70007C9305934FF00208CDF80C8059F8203093
:100B8000C3490598C34E0FFA8BF704247D0103FA7D
:100B900008F32E4402932246BF4B0144CDE90044A2
:100BA0000AA802F09DFA0AA93046002202F044F990
:100BB0000BEB04031A4651463046049302F086F9C3
:100BC0004146304602F0EAF932465946B34802F04F
:100BD00095F8B34B07EB470003EBC00002F018FB9E
:100BE000CDF80C8059F82B300598AE49009403F1EC
:100BF0008043013B03FA08F3CDE90143AA4B2246A7
:100C000003EB071301440AA802F06AFAA74B05EBAD
:100C100003080AA940460BF10806002202F00CF96D
:100C200032464046032102F051F9424604999B485E
:100C300002F064F80323039359F82B309C49009485
:100C40009B00CDE90143224601EB87010AA8994B9D
:100C500002F046FA984B1D440AA92846002202F0E9
:100C6000EBF82A4631468D4802F048F878E7C3028F
:100C7000924805930425191D2A460144CDF80CA07D
:100C8000CDE901550095844B8D4F0AA802F028FA52
:100C90000FFA8BF68B4B7401274404EB030838469C
:100CA00042460AA902F0C8F80BEB05031A46514662
:100CB0003846049302F00AF93A465946774802F05A
:100CC0001DF806EB46037648DB001844069302F055
:100CD0009FFA0698744B7C4903EB0613CDE9025A40
:100CE0002A460144CDE900550AA8079302F0F8F915
:100CF000764B03EB0409764B23441A4648460AA96F
:100D00000BF10807089302F097F8514648463A4617
:100D100002F0DCF84A4604996048DFF8A0A101F02F
:100D2000EDFFB30009930323CDE902532A46099846
:100D30005F49604BCDE900555F4D014425440AA849
:100D400002F0CEF9284600220AA902F075F82A46D8
:100D5000604D5248394601F0D1FF4FF4FA7355F80F
:100D60002B20B2FBF3F955F82B20B2FBF3F603FB73
:100D7000162616B909F1FF391E46B9F5FA4F04D9FE
:100D8000554B4FF480029A60EAE6059B53441F4698
:100D9000524B234405934FF0020AB9F1030F00F2BE
:100DA0002381DFE809F00243A5A50424B6003A4BED
:100DB000CDF80CA0224639460AA80296CDE9004497
:100DC00002F08EF9059A0AA9404602F035F8049A15
:100DD0000221404602F07AF8CDE9024ACDE900440A
:100DE000079B22463E490698084401460AA802F09D
:100DF00077F9089800220AA902F01EF8394902245E
:100E000004220823CDE90234CDE90022224B01EB74
:100E1000CB010AA802F064F90AA90598002202F0A1
:100E20000BF82146059802F0B9F899E604254FF42D
:100E3000FA63CDE901532A46174BCDF80CA0394689
:100E40000AA8009502F04CF9274B1C4422460AA937
:100E50004046B60001F0F0FF0F4BCDF80CA02A463B
:100E600039460AA8CDE90156009502F039F9059AEC
:100E70000AA9204601F0E0FF049A0221204602F070
:100E800025F8CDE9025ACDE90055079B2A46A9E786
:100E9000ACA2FF1F40E5FF1F34C0024000800040AD
:100EA000E0E3FF1F10C2FF1F0071034080E7FF1F38
:100EB000FCC1FF1F8CF00F4000E2FF1FE081FF1F0D
:100EC00000E7FF1F60E6FF1F18A2FF1FA0E8FF1F3B
:100ED00080E2FF1F00A2FF1F40F00F4060E3FF1FF2
:100EE00024A2FF1FE0A1FF1FE0E5FF1FECC1FF1FD1
:100EF00055F82B30714A023B9B08136055F82B20A4
:100F000055F82B30023B023A03F0030303EB920344
:100F10006B4A0233136055F82B30023B04264FF026
:100F2000020923F0030302933246664BCDF80C907E
:100F300039460AA8CDE9006602F0D2F842460AA96D
:100F4000404601F079FF049A4946404601F0BEFF51
:100F500055F82B2055F82B305B4DCDF80C90023B0B
:100F6000023A03F0030303EB92034B4403FA09F341
:100F70002544CDE901633246524B009639460AA812
:100F800002F0AEF82846059A0AA901F055FF284656
:100F9000049A494601F09AFF09984C4B4C490025A8
:100FA0002344014432460AA8CDE90265CDE9006632
:100FB00002F096F8474B08981C4422460AA901F013
:100FC0003BFF45490698CDF80C900C230844CDE929
:100FD0000163324601460096079B0AA802F080F89A
:100FE0002A460AA9204607E704254FF4FA63394642
:100FF000CDE901532A46334BCDF80CA00AA8009541
:1010000002F06EF842460AA9404601F015FFB6000C
:10101000049A0221404601F059FFCDE901562A4EBB
:10102000284BCDF80CA0264439462A460AA800953C
:1010300002F056F83046059A0AA901F0FDFE304646
:10104000049A264E022101F041FF0122A9F1030377
:10105000CDE90123224B0392591E264400920AA88F
:1010600002F03EF832460AA9089801F0E5FE099818
:10107000164B17490027234401442A460AA8CDE904
:101080000257CDE9005502F02BF8124B1C442246C2
:101090000AA9304601F0D0FE0F490698CDF80CA001
:1010A0000C230844CDE901532A4601460095079BCD
:1010B0000AA802F015F83A4693E700BFE0E6FF1FE2
:1010C00000E8FF1F34C00240E0E5FF1F78E6FF1F85
:1010D00070A2FF1F20E8FF1F1CA2FF1F40E9FF1F97
:1010E000DF04FF1F08B500B2FFF7B8FC044B4FF058
:1010F00000715863DA6A920100D508BDD962F9E738
:1011000000C002402DE9F047DFF8B480234E244FA1
:10111000244DDFF8B0900124C8F80C413368FBB9C6
:10112000214B224A18883978214BFFF7DBFF214BEE
:101130000220D3F800A001F01DFA1F4A0023AAFBE9
:101140000001FFF793FAC8F800013B786A6859F884
:10115000233004FA03F313436B603460BDE8F08777
:101160003978124A124B0020FFF7BCFF134B0220C4
:10117000D3F800A001F0FEF90F4A0023AAFB0001FA
:10118000FFF774FAC8F800013A78AB6859F82220E2
:1011900094401C430023AC603360DFE7A4A2FF1F30
:1011A00094A2FF1F80F00F4092A2FF1F3800FF1F84
:1011B0002800FF1F9CA2FF1F40420F00A0A2FF1F9C
:1011C000007003400000FF1F70B59FED117A114CB5
:1011D000114D124E0021236828881843FFF732FC76
:1011E000B36B0F4A01299BB2C4BF07EE903AF8EEE9
:1011F000677A22F8113001F10101C8BF37EE277A72
:10120000B1F5007FE7D19FED070A87EE000A70BDB8
:101210000000000020E9FF1FDC00FF1F00C00240AB
:10122000DE00FF1F0000FF432DE9F04F0220AFB0AA
:1012300001F0A0F9D149DFF8B483DFF8B4A310239B
:10124000CDE92613FA23CDE929332B93CC4B002586
:101250000227012604224FF0806B8DF842608DF842
:101260004A208DF8B0608DF8B1608DF838508DF857
:1012700039508DF83A708DF83B508DF83C508DF810
:1012800040508DF841508DF843508DF844508DF802
:1012900048508DF849508DF84B508DF84C508DF8D2
:1012A00094508DF8A0508DF8A1508DF8A2508DF873
:1012B000B2508DF8B3508DF8B4508DF8B550C3F8D6
:1012C00000B09A604FF480325A60814600F014FFFB
:1012D00000F070FE40460CAA16218DF830608DF8A3
:1012E000315002F025FA50460CAA1A2102F020FAD9
:1012F00040460CAA152102F01BFA4FF48003C8F8EF
:101300000430A049CAF804B04FF40013C8F8043000
:101310004FF4A0709C4B88605A69DFF8D8A2DFF8C0
:10132000D882DFF8D8B242F004025A615A6842F01B
:1013300004025A6048605A693A435A615A683A430B
:101340005A60D3F8942042F02002C3F89420D3F8D6
:10135000942042F08002C3F89420D3F894203243C2
:10136000C3F89420D3F8942042F40072C3F8942078
:1013700014A802F03DFB4FF4E133384614938DF886
:101380005B608DF85C6001F0F5F8804E024614A9B0
:101390007F4802F065FA4FF402217D4802F048FBD5
:1013A0004A4625A9304601F0ABFB3368DFF850927E
:1013B00043F400333360336843F48023336033688D
:1013C00043F4405333600EA8FFF700FAC9F8000059
:1013D00010A8FFF7FBF96F4E306012A8FFF7F6F97F
:1013E0002EA9C8F8000001F88C5D504602F0CEF935
:1013F000384601F0BFF86849674A0023A0FB0101A5
:10140000FFF734F9CBF80000384601F0B3F8634930
:10141000614A0023A0FB0101FFF728F9CBF8040083
:10142000CAF800011EA80AF5805A02F05FF91EA949
:1014300050468DF8787002F02DF8384601F09AF891
:101440004FF47A71F840544A0023A0FB0101FFF7E2
:101450000DF9CAF80800524801F004FA504ACDF8D4
:101460001090CDF818809346535D03F0C00343F00D
:101470003F03535501350C2DF6D100231BF80320F3
:1014800042F040020BF803200133042BF6D19BF805
:101490000C3003F0C00343F014038BF80C309BF8BE
:1014A0000D3003F0C00343F03F038BF80D300023F1
:1014B0001BF8032042F080020BF8032001330E2BAF
:1014C000F6D10DA801F0A2FC0DA9364801F06CFC84
:1014D00000223449344801F09BFD00223349324850
:1014E00001F0ECFD01222F49314801F091FD00226D
:1014F00030492F4801F0E2FD02222A492E4801F02E
:1015000087FD00222D492C4801F0D8FD03222549F2
:101510002B4801F07DFD00222A49294801F0CEFD2B
:1015200004222049284801F073FD05221D4927485F
:1015300001F06EFD06221B49254801F069FD0722D6
:101540001849244801F064FD08221649224801F098
:101550005FFD09221349214801F05AFD0A22114971
:101560001F4801F055FD0B220E491E4801F050FDA9
:101570000C220C491C4801F04BFD43E000093D00E2
:1015800000E100E00090044000F00F4000C0024085
:1015900000A00E4000E3FF1F40420F0020A1070003
:1015A0000010024000800040E0E3FF1FF50700004C
:1015B000F8E3FF1F5508000010E4FF1FB508000006
:1015C00028E4FF1F1509000040E4FF1F58E4FF1F37
:1015D00070E4FF1F88E4FF1FA0E4FF1FB8E4FF1FB3
:1015E000D0E4FF1FE8E4FF1F00E5FF1F40F00F40BD
:1015F00000F10F400070034020E9FF1F4CE1FF1F86
:1016000040E3FF1F0022AE49AE4801F057FD0D2216
:10161000AD49AE4801F0FCFCAD4BAE4A30681360FA
:1016200003F12001516003F140016033D360AA4B04
:10163000916040F41450FF221A70FFF703FAA74993
:10164000A7480025012250F8253002FA03F341F89B
:1016500025300135042DF6D1069BA24E1B68338040
:1016600002274FF48063CDE9017303929E4B0097EC
:101670002A469E4918A801F033FD002218A99C486B
:1016800001F0DAFB0D220121994801F01FFC3946D7
:10169000974801F083FC964A8B480C2101F02EFB01
:1016A000884801F0B5FD40F2FC730322CDE9023217
:1016B000CDE900578F4B904D3A46314618A801F0BE
:1016C0000FFD002218A98D4801F0B6FB8B4A7E4819
:1016D0000D2101F013FB00270896894B8848012251
:1016E00023F81720874B1A80874B1A80874B1146A7
:1016F0004FF00009A3F80090FFF7EEF9049B07955F
:1017000018682B8803F500631843FFF79BF94FF423
:1017100080734FEA470A059340F6FF764FF400685E
:10172000FFF752FD7A4B1B8807EE903AF8EEE77A06
:1017300030EE670AB5EEC00AF1EE10FA40F1838090
:10174000022306EB080292FBF3F2049BB5F800C0FB
:10175000186811B262441043FFF774F9C146059B43
:10176000013B88460593DBD1A6EB0903012B31DC55
:10177000049B18682B884B441843FFF763F9FFF765
:1017800023FD049B18682B8833441843F0EE406A0D
:10179000FFF758F9FFF718FD5D4B1B8807EE903AED
:1017A000F8EEE77A36EEE77A30EE670ABDEEC77AF2
:1017B000BDEEC00A17EE101A10EE103A0029B8BF9D
:1017C0004942002BB8BF5B429942D8BF4E46514BAD
:1017D00023F80A60049B4F4A1868079B3AF80220D6
:1017E0001B8813441843FFF72DF9454A444800234A
:1017F000138053809380D380434B1A88414B013729
:101800001988FFF769F9042F05F102057FF465AF28
:10181000414D424B1B68002BFBD02B78DBB2662B73
:1018200000F0B08200F282805E2B00F01D822FD883
:101830005B2B00F04D8116D85A2B00F0FE80384B00
:1018400000221A608FE0022309EB080696FBF3F6EC
:10185000049BB5F800C0186831B266443043FFF706
:10186000F1F846467BE75C2B00F0AE815D2BE6D1BC
:101870006C78AB78E87829796A7903EB002303EB7D
:10188000014303EB0263E4B2264A42F824306AE0E3
:10189000602B00F0A280C0F0F581642B00F065821F
:1018A000652BCCD16C78AB78E9781A4AE4B203EBBB
:1018B000012322F8143021461B4B00205FE200BFB9
:1018C0007509000000E5FF1F0080004018E5FF1FBC
:1018D000E0E5FF1F70A2FF1FDE04FF1FFCC1FF1F1A
:1018E0000000FF1FDC00FF1FDE00FF1F38C00240AA
:1018F000C0E5FF1F34C002401000FF1F20E3FF1FA0
:1019000084A2FF1F90A2FF1F82A2FF1F80A2FF1FC1
:101910002400FF1F3800FF1F54E1FF1F60E1FF1F7D
:101920005CE1FF1F00A2FF1F2800FF1F7B2B00F0C0
:101930009E822FD8782B00F0368218D86E2B7FF439
:101940007EAFB54AAB781380EB7853802B799380C8
:101950006B79D380B14BA9791980B14BEA79AE4844
:101960001A80FFF7B9F8AF4A0023136051E7792BCB
:1019700000F042827A2B7FF462AF2B796879A979E3
:10198000EA7903EB002303EB014303EB0263A64A6E
:101990001360E8E7872B00F0888214D8822B7FF44D
:1019A0004EAFA24FA24E0021069B089A1B681088DA
:1019B0001843FFF747F8BB6B26F811300131B1F53A
:1019C000007FF1D1CFE7FE2B00F09282FF2B7FF456
:1019D00036AF984B984ADA60FEE70022974998485C
:1019E000DFF870C2974FDFF860E2DFF87882DFF847
:1019F0007092134600264CF8263047F82630013600
:101A0000B6F5FA7FF7D14EF8223048F8223002F8C6
:101A100009300132042A0B6003604B6043608B6025
:101A20008360CB60C36001F5006100F118000CF524
:101A3000FA6C07F5FA67DDD195E76C78A878EB7852
:101A40002E7995F805A095F80690EA79E4B2D2B21D
:101A5000032CC0B2DBB2F6B25FFA8AFA5FFA89F9F8
:101A6000059280D8784A52F82470B7F5FA7FBFF40F
:101A70007AAF00EB03202146744B754A00B2FEF7A3
:101A8000EDFF4FF4FA7363431F44724A079342F821
:101A900027006D4F022000F06DFD57F82480079B52
:101AA0006D4A4344079306EB0A26059B06EB09495A
:101AB00009EB0369A9FB00010023FEF7D7FD614B89
:101AC000079A43F8220008F1010347F824304AE757
:101AD0006C78AB78DBB20593EB782E79DBB2E4B2AD
:101AE00007936B79032CF6B2DBB23FF63CAF06EB03
:101AF0000326B6B2DFF84481DFF850A133B208EB19
:101B0000C42900270993FB0759D57042504A534610
:101B1000214600B2FEF7A2FF49F827000137B7F5CA
:101B2000007FF0D1059B079A4C4F03EB0226E3029E
:101B3000474A58F8033047F834302146434B0020D9
:101B4000FEF78CFF07EBC407B6B27860022000F006
:101B500011FD3B4B404A4FEA5608182707FB043754
:101B6000A8FB00010023FEF781FD7860022000F051
:101B700001FD394A0023A6FB0001FEF777FDB8609E
:101B8000022000F0F7FC344A0023A6FB0001FEF718
:101B90006DFDF860022000F0EDFC2F4A0023A6FB4B
:101BA0000001FEF763FD3861022000F0E3FC2A4AE1
:101BB0000023A8FB0001FEF759FD7861D3E65346E8
:101BC000234A09982146A5E76C78AE7895F803A0DA
:101BD00095F8049095F80580E4B2032CF6B25FFA0C
:101BE0008AFA5FFA89F95FFA88F83FF6BCAE0220FC
:101BF00000F0C0FC06EB0A2606EB094909EB086871
:101C00000023154AA8FB0001FEF730FD18276743A3
:101C10000B4BD851A7E600BF84A2FF1F90A2FF1F65
:101C200082A2FF1F60E1FF1F9CA2FF1F00C00240B5
:101C3000DE00FF1F00ED00E00400FA05E081FF1F59
:101C400010A2FF1F0CC2FF1FECC1FF1F2800FF1FC7
:101C50003800FF1FACA2FF1F40420F00E0A1FF1F92
:101C60008CA2FF1F00A2FF1FC24F0020461CC24AC9
:101C7000935D3B54915DC0B2FEF768FF042E304681
:101C8000F4D170E6DFF8EC82DFF8009300264746D7
:101C900016F808303BB14B46B84AF1B20020FEF7C7
:101CA000DDFEFEF7CFFE0136042EF1D1DFF8E8921B
:101CB000DFF8CC8200264FF0000AB85D012816D06C
:101CC000022824D00136042EF7D1AD4AAD4EDFF8FC
:101CD000B8C200234FF4FA604FF0180EF95C0129E6
:101CE00024D0022934D00133042BF7D13BE6022063
:101CF00000F040FC32214A465346A0FB0101FEF7AA
:101D0000B5FC06F110031B0148F80300DAE700F008
:101D100031FC32214A465346A0FB0101FEF7A6FCE6
:101D200018237343984A9B581844EAE702EB0318B8
:101D3000D8F8081141F00101C8F8081100FB03F1BF
:101D400051F8068003F11001090142F80180CAE749
:101D500002EB0318D8F8081141F00101C8F8081186
:101D60000EFB03C1D1F80480ECE76C78A878EB781F
:101D7000824A00EB0320E4B2844B214680B2FFF795
:101D8000B1F9F0E56C78AB78EE78804A287969791A
:101D9000E4B203EB062302EB840203EB004303EB04
:101DA00001631360DFE57A4A6C78754E0123136096
:101DB000784A13609BF8002002F07F028BF8002025
:101DC000E4B2C6F80C31D6F8083143F00203C6F885
:101DD0000831022000F0CEFB642100236E4AA0FBF4
:101DE0000101FEF743FCC6F80001D6F8083143F0C4
:101DF0000103C6F80831B6E5654E684FD6F8008095
:101E0000B8F1010F15D15E4BD3F8082122F0010281
:101E1000C3F80821D3F8082122F00202C3F80821F0
:101E200039785A4B554A0020FFF75CF9594BC3F8F3
:101E3000008051494B78DBB23B708B78CA7803EB5A
:101E40000223574A9BB213800B7948790A46897955
:101E5000D27903EB002303EB014303EB0263514A06
:101E600013603368012B7FF47EAD454EABE7444BE6
:101E7000D3F8082122F00102C3F80821D3F8082181
:101E800022F00202C3F808219BF800303B4A43F0DD
:101E900080038BF8003021463C4B0020FFF722F9ED
:101EA0003C4A002313603A4A72E56C78A878EB78D4
:101EB000049A00EB032080B240F6FF738342E4B241
:101EC00028BF0346022C126809D0032C0AD0012C2B
:101ED0000BD103F5A0401043FEF7B4FD43E503F535
:101EE0000040F8E703F53040F5E703F50050F2E76E
:101EF000022000F03FFB2849274A2B4EDFF8B08034
:101F00000023A0FB0101FEF7B1FB1D4BC3F800014C
:101F1000D3F8082142F00102C3F808214FF0010A6A
:101F2000002333800A27D14632882048A8F8009041
:101F30000121FEF7D1FD124BD3F80C21002AFBD072
:101F4000C3F80CA1002132881848A8F80010FEF749
:101F5000C3FD0B4BD3F80C21002AFBD0013FC3F883
:101F60000CA1E1D1D3F8082122F00102C3F8082125
:101F7000F9E400BF8CA2FF1F54E1FF1F3800FF1FD0
:101F8000007003400CC2FF1F10A2FF1F2800FF1F9C
:101F900098A2FF1FA4A2FF1F40420F0094A2FF1FA0
:101FA00092A2FF1FA0A2FF1F82A2FF1F84A2FF1FF9
:101FB00090A2FF1F10B541F244031F4C1F484FF081
:101FC0009272E25000F0B2FB1D4B1E4A1A600122D1
:101FD0001146022000F044FB1B4A1378002103F055
:101FE000C70313700846194A00F008FC184800F0AF
:101FF000AFF9184B184919604FF4A02000F0C6F94A
:1020000041F20403E25822F4401242F40012E2507A
:10201000E25822F40022E250E25822F0405242F00C
:102020000052E250E25822F0E002E250E25842F45C
:102030008052E25010BD00BF00700440444E0000CA
:10204000C4E9FF1F80F0FA0200400640404E000045
:102050004C4E00004800FF1F000E2707034B81B2C3
:102060001A68012088401043186070473880044087
:1020700030B51C481C4D85B0FFF7F0FF1B4801240C
:10208000FFF7ECFF01AA284615218DF804408DF8D2
:10209000054001F04DFB02AA284616218DF80840A4
:1020A0008DF8094001F044FB03AA1A2110488DF86D
:1020B0000C408DF80D4001F03BFB04230D4A1946FE
:1020C00064F30A21A2F85410194664F30A21A2F815
:1020D000581002F5405264F30A23A2F8683005B0A4
:1020E00030BD00BF0A00381040F00F400D0038101E
:1020F00000F10F4000A0044008B5FFF7B9FF3448D5
:10210000FFF7ACFF3348FFF7A9FF3348FFF7A6FFFF
:102110003248FFF7A3FF3248FFF7A0FF314A3249A8
:10212000136E23F4E06343F440731366536E23F499
:10213000E06343F4407353662C4B1A6822F4E06268
:1021400042F400721A605A6822F4E06242F40072AB
:102150005A609A6822F4E06242F400729A60DA6887
:1021600022F4E06242F40072DA60A3F58053DA6888
:1021700022F4E06242F40072DA609A6822F4E062CB
:1021800042F400729A604A6822F4E06242F480727B
:102190004A608A6822F4E06242F480728A601A68B7
:1021A00022F4E06242F480721A605A6922F4E0621A
:1021B00042F480725A61DA6922F4E06242F4807279
:1021C000DA615A6A22F4E06242F480725A6208BD0F
:1021D000090038100A0038100C0038100B003810B5
:1021E0000D00381000D004400090044000C00440AE
:1021F000064B9A79D20755BF054B064A1868187ADC
:1022000042BFC0F342031068D84070470040064008
:102210004400FF1F4000FF1F08B50F4B1B7B03F05E
:102220000303012B0ED004D3022B0C4818BF00204F
:1022300008BD0B4B1A6862B90A4B0B4ADA210B48EE
:1022400001F022FE0A4B1A681AB90A4B064ADF212E
:10225000F5E71868ECE700BF00400640006CDC02C0
:10226000C4E9FF1F5B4E0000AA4E0000674E00004D
:10227000C0E9FF1F924E000008B5FFF7CDFFA0B1E7
:102280000D4A13785178127BC3F3C20311F0300F5B
:1022900020FA03F002F0030200D00AB1022A04D1AE
:1022A000062B03D0072B05D0400908BD1423B0FB33
:1022B000F3F0FAE70C23FAE70040064008B5094BB3
:1022C0001B781B060BD5084B1A6832B9074B084A16
:1022D000084840F2631101F0D7FD186808BD0020DE
:1022E000FCE700BF00500640C4E9FF1F5B4E000042
:1022F000C14E0000674E000008B5104B1B68C3F3C9
:102300008143022B0BD0032B15D00BB1002008BD4D
:10231000FFF7D4FFB0F5004F18BF0020F7E7084BD8
:102320001A6832B9074B084A08484FF4BE7101F0E9
:10233000ABFD1868EBE74FF47A70E8E700700440F3
:10234000C0E9FF1F924E0000D84E0000674E00000B
:102350000D4A416841F2440310B5D15041F20404E2
:10236000037811591B0421F4403103F440330B432B
:102370001351437811689B0403F4402321F4402156
:102380000B43136010BD00BF0070044030B5264CF5
:10239000264B226822F480222260C8B941F204014F
:1023A0005A5822F480225A5001232268B0F5E02FB7
:1023B00042F48022226009D11D4A032182F844118F
:1023C00092F8401141F0800182F84011184630BD6A
:1023D000184A914220D004D8174A914220D00023B5
:1023E0000DE0164A914213D002F1B77202F558522D
:1023F0009142F4D141F248020921995001230B4D39
:1024000041F204016A5822F4E02202436A50CCE708
:1024100041F248020221F0E741F248020521ECE7CF
:1024200041F248020021E8E7348004400070044093
:102430000020074000A24A04006CDC0200D8B80566
:1024400008B5104B5A78910701D5002008BD9A793C
:102450009206FAD49B79DB0610D4FFF70DFF002813
:10246000F3D0084AD378D278C3F341135B0003EB6F
:10247000D213054A32F813305843E7E7034B186884
:10248000EDE700BF00400640364F00004400FF1F4C
:10249000034B187810F0020001D0FFF7A9BE704777
:1024A0000040064010B50D4CA07910F0400014D04B
:1024B000FFF7B2FE30B90A4B0A4A0B4840F2DF215F
:1024C00001F0E2FC237903F01F030133B0FBF3F0CA
:1024D000637903F01F031833584310BD00400640D2
:1024E0009F4E0000EE4E0000674E0000084A41F289
:1024F0000403D358C3F30143012B02D003D2FFF7E7
:102500009FBFFFF7CFBF032B024818BF00207047C3
:1025100000700440006CDC02084B9B79C3F381031C
:10252000022B09D0032B03D0012B03D1FFF760BE90
:10253000FFF7B8BFFFF784BFFFF76EBE004006404D
:1025400010B50A4B9B79DB0606D4FFF795FE0446CF
:102550002CB90024204610BD054B1C68F8E7FFF796
:10256000DBFFB4EBD00FF4D8F4E700BF0040064027
:102570004400FF1F08B5132850D8DFE800F00D0D08
:1025800018212A4F33373B4F4F3F43474B4F4F4F55
:10259000510A4FF47A7008BDFFF7BEFF214A41F29D
:1025A0004403D3581B0F0133B0FBF3F0F3E7FFF7FD
:1025B000B3FF1C4A41F24403D358C3F30363F2E769
:1025C000FFF7AAFF174A41F24403D358C3F303535A
:1025D000E9E7FFF7A1FF134A41F24403D358C3F3DD
:1025E0000343E0E7BDE80840FFF780BFBDE80840CF
:1025F000FFF782BEBDE80840FFF760BEBDE80840B7
:10260000FFF79EBFBDE80840FFF742BFBDE80840A6
:10261000FFF716BFBDE80840FFF744BF0020BAE748
:102620000148B8E700700440006CDC0210B50B49AB
:102630000A7B0B7B00F0030403F0FC0323430B73C2
:1026400002F00303834205D1002010BD00BF013B0F
:10265000FCD1F9E740F2DD53F9E700BF0040064046
:1026600070B51D4B9C799D791E7AC6F34206964241
:10267000C4F38104EDB217D0ED070CD5012C02D0C4
:102680001B789E0707D5144B5D7805F0FE055D703D
:102690009D79ED07FCD4104D2B7A520002F00E020A
:1026A00003F0D0031A432A720B4B5A7801F001054C
:1026B00002F0FE022A435A701A7802F0FC0202432A
:1026C000012C1A7001D0820704D59A7902F0010218
:1026D0008A42FAD1002070BD0040064008B530B9EA
:1026E0000E4B0F4A0F4840F2D53101F0CDFB427836
:1026F0000D4B02F01F021A715979827801F0E00146
:1027000002F01F020A435A711A7942F0400102781E
:102710000A431A719A795206FCD508BD544E00003E
:10272000004F0000674E000000400640036849F675
:102730009702934210B522D9124CA34294BF0124B0
:102740000224114902790B7803F0F00313430B7054
:102750000B78827903F05F0313430C4A0B705378B4
:10276000407903F0C303034343EA0413537028B1D1
:102770000B78190602D593799B07FCD510BD002470
:10278000DFE700BF00127A0000500640004006401C
:1027900038B531B9154B164A164840F2277101F089
:1027A00073FB154B5A7802F0FD025A701A7802F04A
:1027B0003B0242F080021A709A7902F01C02082A49
:1027C000FAD15A790C4C02F0BF025A712546A3790E
:1027D0009A06FCD40846FFF781FF637943F0400373
:1027E0006371AB799B06FCD5002038BD544E0000C8
:1027F000114F0000674E00000040064038B50D46FE
:10280000144632B90C4B0D4A0D484FF4046101F0E7
:102810003BFBFFF70BFF21462846FFF7B9FF094BAB
:102820001A7802F03F021A709A79C2F38102032AE1
:10283000FAD1002038BD00BF544E0000224F0000E6
:10284000674E00000040064008B5034A034B0448A9
:102850003B2101F019FB00BF974F0000464F0000DD
:102860006B4F000008B5054B984201D0FFF7ECFF15
:10287000034A136843F00203136008BD00100240CE
:102880003C80044008B50368002BB4BF034B044BE5
:102890001B689847BFF34F8F08BD00BF74E1FF1F4F
:1028A00078E1FF1F08B50B4B98420DD003F580531C
:1028B00098420BD003F5FE23984209D0064B074AF5
:1028C00007488C2101F0E0FA002008BD0120FCE758
:1028D0000220FAE700C00240AA4F00003A50000070
:1028E000CD4F000010B50C46FFF7DCFF014B1C5428
:1028F00010BD00BF64E1FF1F2DE9F04F85B00391CB
:102900000168002946DA00255900DFF8C0A00191CE
:102910002C464FF0010CA946A8464FF0FF31DAF8DB
:1029200000600296A6460F46002637E0A646B1464E
:102930000F46A8464FF0010C0199B1FBFBF18A420A
:1029400008D3541ABC4205D227468E46B146A84643
:102950004FF0020C744639460136102E00D0D9B91A
:102960000135042D03D00AF1040A0029D7D1039BB5
:1029700000EB8300134BC268134043EA090343EAA8
:1029800008480CF1FF3C48EACC73C360204605B010
:10299000BDE8F08F0024F9E7A6460F460A49029CDD
:1029A00051F8261001FB04FBB3FBFBF4A242C3D396
:1029B000111BB942C0D20029B8D1B146A8464FF088
:1029C000010CC9E7F0FFFC7FB0500000A0500000F0
:1029D00030B505689DF80C40002D14DA022C13D098
:1029E000032C20D0012C0ED100EB81009205C16890
:1029F0001B039BB202F440021A4321F4400323F468
:102A000070431A43C26030BD00EB81001205C168FB
:102A10001B0203F4706302F440121A4321F44013C2
:102A200023F47063EDE700EB81009204C1681B01A1
:102A3000DBB202F440221A4321F4402323F0F003D6
:102A4000DFE700002DE9F04F0468002C85B0074651
:102A50008C460FDA0E9D264CB4FBF3F46400A542BD
:102A60000AD8002300921A46FFF7B2FF204605B0AD
:102A7000BDE8F08F0024F9E74FF4E0241D4DDFF8A6
:102A80007880B5FBF3F5DFF874906C430F23A4084E
:102A9000002002934FF0030E4FF0FF3658F820103D
:102AA00001FB05F303934FF0000A039B59F82A102A
:102AB00059430E9B89088B4208D8A1EB030BB34501
:102AC0003FBF5E460C46CDF808A086460AF1010AD3
:102AD000BAF1100F01D0002EE7D10130042801D047
:102AE000002EDBD10092029B724661463846BBE75E
:102AF00000CA9A3B00286BEEF05000000051000025
:102B000073B5054616460C4629B9464B464ABB21C5
:102B1000464801F0B9F9FFF7C5FE454B53F82010C0
:102B20000B0C03F1804303F58E2389B21868012250
:102B30008A4002431A602B68A17F23F480432B60F4
:102B40002B6843F001032B602B6843F000432B609C
:102B50002A6894F8203022F08A429B0643EA817367
:102B600022F44C521343E27F617F43EA026394F8FC
:102B70002120120202F4407213432B60237F2A6843
:102B80001B0403F47C1301290CBF134322EA030343
:102B90002B606268217833462846FFF7ADFE18B9EE
:102BA000244B214AD421B3E72178A36805EB8100A7
:102BB000013BC268DB0622F0FE4203F0F043134300
:102BC000227B920602F080621343627B520602F07F
:102BD00000721343A27B120602F080721343C3609B
:102BE00023690093012233462846FFF72BFF6369D0
:102BF00021780093022233462846FFF723FFA3697A
:102C000021780093032233462846FFF71BFF00215B
:102C10002846FFF767FE2B6823F001032B6002B004
:102C200070BD00BFF74F00004B500000CD4F0000BB
:102C3000405100000450000008B5074B196831B935
:102C4000064B074A074840F6490101F01DF90648BE
:102C5000BDE80840FFF716BE68E1FF1F0A500000FC
:102C60005B500000CD4F000000C0024008B5074B8C
:102C7000596831B9064B074A074840F6510101F03F
:102C800003F90648BDE80840FFF7FCBD68E1FF1FF7
:102C90001A50000071500000CD4F000000D00240DB
:102CA00008B5074B996831B9064B074A074840F603
:102CB000590101F0E9F80648BDE80840FFF7E2BD18
:102CC00068E1FF1F2A50000087500000CD4F000030
:102CD00000C00A4008B5054B984205D0044B054A90
:102CE0000548442101F0D0F8002008BD00800040D4
:102CF0005B5100006D5300007E5100000F2938B574
:102D000005D9244B244A5221244801F0BDF81AB9B0
:102D1000234B214A5321F7E712F01F0403D0214B24
:102D20001D4A5421F0E700EB411000F5805315686F
:102D30001D60938841F204019BB24352D38841F253
:102D400006019BB2435241F208039168C15041F21F
:102D50000C03D168C15041F210031169C150938A2C
:102D600041F214019BB24352D38A41F216019BB245
:102D7000435241F218039169C15041F21C0144527F
:102D8000938B9BB24352D38B41F21E029BB2835270
:102D900038BD00BFB75100007E5300007E510000D7
:102DA000E1510000ED51000038B504460D4629B947
:102DB000124B134A1348722101F066F8FFF78AFF9D
:102DC000114A136843F0020313600023E3604FF0DD
:102DD000FF336362E3622368AA7823F0560343F06B
:102DE000800343EA82036A7843EA02132A7843EABB
:102DF0008213EA7843EA4203236038BDA8510000F9
:102E00008E5300007E5100004080044008B528B970
:102E1000064B074A0748A62101F036F80023012295
:102E2000837042700370C37008BD00BFA8510000DA
:102E3000985300007E51000010B530B91D4B1E4A5A
:102E40004FF4DC711D4801F01FF8C40604D01C4B80
:102E5000194A40F2B911F5E721B91A4B164A4FF455
:102E6000DD71EFE7D30604D0174B134A40F2BB11D4
:102E7000E8E70B6803604B6803610B7A1B0203F4FD
:102E8000E0644B7A03F007032343C3804B898380BC
:102E90008B8983820B6983608B8AC382C3833AB137
:102EA0008261838B9BB223F0080343F0100383837A
:102EB00010BD00BFE1510000AE5300007E51000084
:102EC000ED510000A85100004C53000008B530B986
:102ED0002D4B2E4A40F207212D4800F0D5FFC306A6
:102EE00004D02C4B294A4FF40271F5E70F2A04D97C
:102EF000294B264A40F20921EEE7012916D1C38A5F
:102F000043F40043C382C38B43F40043C383C38AA7
:102F100052029BB292B223F4F0531343C382C38B89
:102F20009BB223F4F0531A43C2830DE002290CD163
:102F3000838B43F020038383838B9BB223F47063E2
:102F400043EA022292B2828308BD03290DD1838B0A
:102F500043F020038383838B9BB292B223F470638C
:102F600043EA02239BB28383C9E7C38AC3F30E03F8
:102F7000C382C38BC3F30E03C383838B23F020036D
:102F80001B041B0C8383DFE7E1510000C8530000E2
:102F90007E510000ED5100001C53000008B530B90F
:102FA000094B0A4A0A484FF4187100F06DFF8A076E
:102FB00042BF838B43F0020383834B0742BF838B63
:102FC00043F00403838308BDE1510000DF53000098
:102FD0007E5100000F2908B506D90A4B0A4A0B4852
:102FE00040F2DA2100F050FFD30744BFCBB20377A1
:102FF000930744BFCBB28377530744BFC9B2C177AD
:1030000008BD00BFB7510000F85300007E5100001A
:10301000F8B50D461446064630B9204B204A40F21A
:103020000B31204800F030FF0F2A04D91E4B1C4AF8
:103030004FF44371F5E71822002100F08DFFB560D1
:1030400034742846FFF746FE07461848FFF742FE4D
:10305000C0B2381A04EB0010154B43F82060154835
:1030600000EB07100357002B08DB5909012203F07E
:103070001F0302FA03F3104A42F82130803464013E
:10308000291900232B518B80CB808B60CB600B6187
:103090008B82CB828B618B83CB83F8BD4C5100003C
:1030A000155400007E510000B75100000080004020
:1030B0007CE1FF1F6F54000000E100E008B530B96B
:1030C000044B054A054840F25A3100F0DDFEC0E9E4
:1030D000001208BD4C510000275400007E51000032
:1030E000F8B5089D9DF824C09E46DDE9064330B939
:1030F0003E4B3F4A40F27A313E4800F0C5FE21B9CE
:103100003D4B3B4A40F27B31F6E7BEF1000F04D164
:103110003A4B374A4FF45F71EEE7571E1F2F04D822
:10312000374E26FA07F7FF0704D4364B304A40F2F1
:103130007D31E1E7671E1F2F02D8FE40F60704D459
:10314000314B2B4A40F27E31D6E7B5FBF3F603FB59
:10315000165525B12D4B264A40F27F31CCE7042A83
:103160008560C560C0E9001EC0E904361DD011D8D5
:10317000012A15D0022A16D0042C25D019D8012CEA
:103180001DD0022C1ED0BCF1030F23D8DFE80CF0B9
:103190002026232A102A0AD0202AEDD1052300E078
:1031A00000230372E8E70123FBE70223F9E7042386
:1031B000F7E7102C0AD0202CE5D1052300E00023EE
:1031C0004372E0E70123FBE70223F9E70423F7E773
:1031D00084814281F8BD00238381FAE78481002342
:1031E0004381F7E700238381FAE700BFA85100007D
:1031F000385400007E5100000A5200001A520000AC
:103200000B8000802B5200008E520000F65200000E
:1032100070B530B9174B184A184840F2694100F0B0
:1032200033FEC1688368027C19B902F00F02DA76B6
:1032300070BD803203EB4213427D62F07F02427523
:103240009A69002AF4D0EFF3108572B68468027C84
:10325000E66801219140314208D1998B090602D5D7
:103260009B8BDB0602D502F00F02E27685F3108815
:10327000DEE700BF4C5100004D5400007E510000BD
:1032800070B5044630B9294B294A2A4840F2D74143
:1032900000F0FAFD8268017CD177C368066833B913
:1032A0002EB1B44601224168BDE87040604702EB90
:1032B000411241F21C0041F218015158155A05F013
:1032C0008005002DA1EB030114BF012200224FEA6B
:1032D000511119D0C9B2637C5BB299421CD1E37C15
:1032E000207D984220D1E37C5BB249B26174E17CDD
:1032F000C91A49B2E17416B161682046B04715B1E8
:10330000A368227C1A7770BD09B10139E2E7217DFB
:10331000013901F0FF01DEE7637C5BB2CB1AE4D533
:10332000207D43FA80F3E0E70023DEE74C51000004
:10333000605400007E51000008B5034B1868FFF789
:103340009FFFBFF34F8F08BD7CE1FF1F08B5034B04
:103350005868FFF795FFBFF34F8F08BD7CE1FF1F53
:1033600008B5034B9868FFF78BFFBFF34F8F08BD7D
:103370007CE1FF1F08B5034BD868FFF781FFBFF35F
:103380004F8F08BD7CE1FF1F08B5034B1869FFF79D
:1033900077FFBFF34F8F08BD7CE1FF1F08B5034BDC
:1033A0005869FFF76DFFBFF34F8F08BD7CE1FF1F2A
:1033B00008B5034B9869FFF763FFBFF34F8F08BD54
:1033C0007CE1FF1F08B5034BD869FFF759FFBFF336
:1033D0004F8F08BD7CE1FF1F08B5034B186AFFF74C
:1033E0004FFFBFF34F8F08BD7CE1FF1F08B5034BB4
:1033F000586AFFF745FFBFF34F8F08BD7CE1FF1F01
:1034000008B5034B986AFFF73BFFBFF34F8F08BD2A
:103410007CE1FF1F08B5034BD86AFFF731FFBFF30C
:103420004F8F08BD7CE1FF1F08B5034B186BFFF7FA
:1034300027FFBFF34F8F08BD7CE1FF1F08B5034B8B
:10344000586BFFF71DFFBFF34F8F08BD7CE1FF1FD7
:1034500008B5034B986BFFF713FFBFF34F8F08BD01
:103460007CE1FF1F08B5034BD86BFFF709FFBFF3E3
:103470004F8F08BD7CE1FF1F08B5034A034B04488A
:10348000502100F001FD00BFC15400007F54000036
:10349000985400002DE9F84F29B98C4B8C4A8D487F
:1034A000D72100F0F1FC4B6813F0F00F00F00B8116
:1034B000894B984210D003F58053984200F0C880A1
:1034C00003F58053984200F0C58003F5FE2398422F
:1034D00000F0C280FFF7D0FF0023804ADFF8F8E158
:1034E00052F82330DFF8F881DFF8F8A1DFF8F8B1FF
:1034F0001A0C02F1804202F58E22012614689BB25A
:1035000006FA03F3234313600B7B4C685B0103F063
:10351000600343F005034365D0F858C0476E4CF094
:1035200008020025B1467045EBB200F0A38040458B
:1035300000F09480504500F09180584500F09A804A
:1035400047662506D0F88C3000F1968043F0B4032E
:1035500014F0700F0DD0E70648BF4CF01802A60615
:1035600048BF42F02002650643F4F81348BF42F01A
:1035700040028265C0F88C30D0F88C308A68564E94
:10358000574FDFF860E1DFF8608143F00403C0F8D3
:103590008C30456E00244FF0010CB0427BD0B84215
:1035A0006FD070456DD0404575D04B4B4566984205
:1035B000D0F8984071D16FF0FF031C40464B984201
:1035C0007DD003F5805398427BD003F58053984219
:1035D00077D003F5FE23984214BF4FF0FF33FF234B
:1035E00013402343C0F89830836DD4054CBF43F09B
:1035F000020323F0020392054CBF43F0010323F0C2
:10360000010383650B788A7E03F0070303604B7820
:103610009B01DBB243EA4223C0F884300B7EC365D2
:103620004B7E03674B69C3668B7B0A699B0102F083
:103630003F02DBB2134383664B7BC26F1B0222F453
:10364000706203F470631343C3670020BDE8F88F12
:10365000012342E7022340E703233EE70126B3426A
:1036600005F10105BFF66CAFDB00053309FA03F382
:103670001F4358E70426F2E743F4FD5343F01403D5
:1036800066E701239C4290D2E30005330CFA03F372
:103690001D43013481E70423F4E7114B98420BD01A
:1036A00003F58053984207D003F5FE23984214BFD8
:1036B00000236FF0FF0380E76FF003037DE7FF2334
:1036C0008EE703238CE70120C0E700BF544E0000C3
:1036D000D15400009854000000800340F0540000D2
:1036E0000090034000A0034000900B4010B504463A
:1036F00030B90C4B0C4A0D484FF4A07100F0C4FBDC
:103700001A220021023000F027FC00238022626090
:10371000637301222383237063702373A273A376E0
:1037200010BD00BF544E0000DA5400009854000051
:1037300008B52AB90B4B0C4A0C48642100F0A4FBD5
:10374000012303FA01F1137823B9436923EA010144
:10375000416108BD53781BB9816043691943F7E79C
:103760004160FAE7544E00004D550000235500001B
:1037700008B5034A034B0448372100F085FB00BF1E
:10378000A55500005A5500007C55000010B529B918
:10379000154B164A1648462100F076FB154B984209
:1037A0001FD1154A136843F400031360036823F024
:1037B00002030360002300EB03140133D4F8082153
:1037C000042B22F00102C4F80821F4D10B7823B1B4
:1037D000036823F00103036010BD036843F0010395
:1037E000F9E7FFF7C5FF00BF544E0000B5550000D4
:1037F0007C550000007003403C80044008B5144B29
:10380000984219D003F58053984217D003F580539E
:10381000984215D003F58053984213D003F5FA234C
:10382000984211D003F5805398420FD0094B0A4AB1
:103830000A488D2100F028FB002008BD0120FCE78C
:103840000220FAE70320F8E70420F6E70520F4E772
:1038500000A00640BE550000965600006C560000C1
:10386000F8B504460D4629B9594B5A4AD4215A484D
:1038700000F00AFB0B681BB9584B564AD521F6E7F6
:103880005749884219D001F58051884215D001F579
:103890008051884213D001F5805188420FD001F544
:1038A000FA21884214BF4FF0FF310121A8798842E4
:1038B00007DD4C4B474AD721D9E70821F6E701211C
:1038C000F4E7E879884203DD474B424AD821CEE746
:1038D0001E01B2FBF6F6B6B2002E08BF012671013A
:1038E0005200B2FBF3F77F1ABFB23944B2FBF1F2D8
:1038F000934234BFD21A9A1A6421B3FBF1F303EB5B
:103900004303934260D32046FFF778FF374B53F8C9
:1039100020100B0C03F1804303F58E2389B2186845
:1039200001228A4002431A60E37803F0F303E37054
:10393000237803F0E00343EA1623DBB2F6B22370E8
:103940006670A37A07F01F0703F0E0031F43A77216
:10395000AA7AA378920002F0040203F0E80313436A
:103960002A7912B142F010021343A3706B792278C6
:103970005B0103F0200302F0DF0213432370AB79F5
:10398000E374EB796375237C43F088032374637CD1
:1039900043F0C00363742B7A1BB1637B43F00803CD
:1039A00063736B7A1BB1637B43F001036373E3784A
:1039B000EA7ADBB20AB143F008032A7B0AB143F08A
:1039C0000403E3700020F8BD40F2F530FBE700BFD0
:1039D000544E0000A75600006C560000D855000059
:1039E00000A00640ED5500002A560000C856000011
:1039F00008B530B90B4B0C4A0C4840F28B1100F063
:103A000043FA4FF4E132002302604FF48072C36046
:103A1000C28003714371037243728372C372037372
:103A200008BD00BF544E0000B15600006C560000A7
:103A300021F0784121F47001037821F4736121F0C1
:103A40000F010B43DBB20370C37843EA1123DBB2EF
:103A5000C370837943EA1143DBB28371437C43EA49
:103A600011614174704702794179037B807C1B04AA
:103A700043EA0123134343EA0060704708B5044A50
:103A8000044B11681B6804489847BFF34F8F08BD6B
:103A9000BCE1FF1FD4E1FF1F00A0064008B5FFF7FF
:103AA000EDFFBFF34F8F08BD08B5044A044B5168C2
:103AB0001B6804489847BFF34F8F08BDBCE1FF1F48
:103AC000D4E1FF1F00B0064008B5FFF7EDFFBFF3DC
:103AD0004F8F08BD08B5044A044B91681B68044821
:103AE0009847BFF34F8F08BDBCE1FF1FD4E1FF1F14
:103AF00000C0064008B5FFF7EDFFBFF34F8F08BDCC
:103B000008B5044A044BD1681B6804489847BFF3C2
:103B10004F8F08BDBCE1FF1FD4E1FF1F00D006405E
:103B200008B5FFF7EDFFBFF34F8F08BD08B5044A96
:103B3000044B11691B6804489847BFF34F8F08BDB9
:103B4000BCE1FF1FD4E1FF1F00A00E4008B5FFF746
:103B5000EDFFBFF34F8F08BD08B5044A044B516910
:103B60001B6804489847BFF34F8F08BDBCE1FF1F97
:103B7000D4E1FF1F00B00E4008B5FFF7EDFFBFF323
:103B80004F8F08BD704700000A4A08B5D2F8883048
:103B900043F47003C2F88830074B4CF22052DA81AC
:103BA0004DF62812DA814FF4E9721A80FFF7EAFF26
:103BB00008BD00BF00ED00E0002005402DE9F04702
:103BC000089E04468846002B4BD18A42154667D989
:103BD000B2FA82F24AB1C2F1200701FA02F320FAE6
:103BE00007F7954047EA030894404FEA154E230C27
:103BF000B8FBFEF71FFA85FC0EFB178843EA084363
:103C000007FB0CF1994209D9EB1807F1FF3080F05E
:103C10001B81994240F21881023F2B445B1AA4B2E7
:103C2000B3FBFEF00EFB103344EA034400FB0CFC34
:103C3000A44509D92C1900F1FF3380F00781A44570
:103C400040F2048102382C4440EA0740A4EB0C0403
:103C500000271EB1D4400023C6E900433946BDE821
:103C6000F0878B4209D9002E00F0EB800027C6E9CF
:103C7000000138463946BDE8F087B3FA83F7002FD4
:103C800047D18B4202D3824200F2FA80841A61EB60
:103C9000030301209846002EE0D0C6E90048DDE786
:103CA00002B9FFDEB2FA82F2002A40F08F80491B8F
:103CB0004FEA154E1FFA85F80127B1FBFEFC230CD5
:103CC0000EFB1C1143EA014308FB0CF1994207D992
:103CD000EB180CF1FF3002D2994200F2CD808446FD
:103CE000591AA3B2B1FBFEF00EFB101443EA0444D0
:103CF00008FB00F8A04507D92C1900F1FF3302D2C8
:103D0000A04500F2B6801846A4EB080440EA0C4037
:103D10009FE7C7F1200CBB4022FA0CFE4EEA030ECF
:103D200001FA07F420FA0CF521FA0CF34FEA1E48C9
:103D30002543B3FBF8F92C0C08FB19331FFA8EFA54
:103D400044EA034309FB0AF49C4202FA07F200FA30
:103D500007F10BD91EEB030309F1FF3080F08780D8
:103D60009C4240F28480A9F1020973441B1BADB24E
:103D7000B3FBF8F008FB103345EA034400FB0AFAF2
:103D8000A24508D91EEB040400F1FF336BD2A24513
:103D900069D90238744440EA0940A0FB0289A4EBC7
:103DA0000A044C45C2464B4654D351D0002E69D02C
:103DB000B1EB0A0564EB030404FA0CFCFD40FC4083
:103DC0004CEA0505C6E90054002747E7C2F1200385
:103DD00020FA03F7954001FA02F021FA03F34FEAC3
:103DE000154E3843010CB3FBFEF71FFA85F80EFBA6
:103DF000173341EA034107FB08F38B4204FA02F44C
:103E000007D9691807F1FF3C2FD28B422DD9023F09
:103E10002944CB1A81B2B3FBFEF00EFB103341EA0A
:103E2000034100FB08F38B4207D9691800F1FF3CFE
:103E300017D28B4215D902382944C91A40EA0747DC
:103E40003BE73746304609E70746E7E61846FBE614
:103E50004145ABD2B8EB020A69EB0E0201381346BA
:103E6000A4E76046E9E7184695E76746D1E781464B
:103E70007CE702382C4447E7ACF1020C2B442FE7D7
:103E8000384608E73746E9E61FB51C46094B1B686C
:103E90000546D86852B1084B0091CDE90132074977
:103EA0002B46224600F022F800F09EFC044B1A46F6
:103EB000F2E700BF4C00FF1FE0560000ED56000087
:103EC0001B57000008B5074B044613B10021AFF3A0
:103ED0000080054B1868836A03B19847204600F0BC
:103EE000A9FF00BF000000001C5700000EB403B57E
:103EF000014603AB054853F8042B0068019300F01A
:103F000005F902B05DF804EB03B070474C00FF1FE9
:103F100070B50D4E0D4CA41BA4100025A54209D16F
:103F20000B4E0C4C01F046FCA41BA4100025A5422E
:103F300005D170BD56F8253098470135EEE756F8A3
:103F4000253098470135F2E7D4570000D4570000D8
:103F5000D4570000D857000002440346934200D1D2
:103F6000704703F8011BF9E738B50546002945D02D
:103F700051F8043C0C1F002BB8BFE41800F01AFEE7
:103F80001F4A1368104633B9636014602846BDE8C1
:103F9000384000F010BEA3420CD921686218934249
:103FA00004BF1A685B68636004BF52182260046033
:103FB000ECE713465A680AB1A242FAD919685818B0
:103FC000A0420BD120680144581882421960DDD10B
:103FD000106852685A6001441960D7E702D90C236F
:103FE0002B60D3E7206821188A4204BF1168526809
:103FF000626004BF091821605C60C7E738BD00BF7C
:10400000D8E1FF1F70B5CD1C25F0030508350C2D38
:1040100038BF0C25002D064601DBA94203D90C232D
:104020003360002070BD00F0C5FD214A14682146B0
:1040300091B9204C23681BB9304600F005FB206085
:104040002946304600F000FB431C24D10C2333608A
:10405000304600F0B0FDE4E70B685B1B18D40B2B77
:104060000FD90B60CD50CC18304600F0A4FD04F100
:104070000B00231D20F00700C31AD3D05A42E25090
:10408000D0E78C424B6816BF636013600C46EBE7C9
:104090000C464968CCE7C41C24F00304A04205D0B8
:1040A000211A304600F0D0FA0130CFD02560DBE78E
:1040B000D8E1FF1FDCE1FF1F9368013B002B10B428
:1040C000936008DA9469A34201DB0A2903D15DF801
:1040D000044B00F0C9BA1368581C106019700846E8
:1040E0005DF8044B7047F8B506460F461446D518E0
:1040F000AC4201D1002007E03A4614F8011B3046DB
:10410000FFF7DAFF431CF3D1F8BD00002DE9F04FB3
:104110000C469DB017461D46064618B183690BB97B
:1041200000F05AFC7C4B9C4258D17468A389180754
:104130005ED52369002B5BD00023099320238DF8E3
:10414000293030238DF82A3003954FF0010BB84603
:10415000454615F8013B0BB1252B54D1B8EB070AA6
:104160000BD053463A4621463046FFF7BCFF01309C
:1041700000F0C280099B5344099398F80030002B4B
:1041800000F0BA8000234FF0FF32CDE905230493FD
:1041900007938DF853301A93A846052218F8011B8F
:1041A0005E48FCF77DFA049B78BBD90644BF202209
:1041B0008DF853201A0744BF2B228DF853202A78FC
:1041C0002A2A2AD0079AA84600200A25414611F833
:1041D000013B303B092B69D960B324E0504B9C4232
:1041E00001D1B468A2E74F4B9C4208BFF4689DE739
:1041F0002146304600F08AFA00289DD04FF0FF306B
:104200001DB0BDE8F08FA846A2E7444A801A0BFA19
:1042100000F0184304904546BEE7039A111D12684A
:104220000391002A01DB079204E0524243F00203AB
:104230000792049398F800302E2B0ED198F8013095
:104240002A2B38D1039B1A1D1B680392002BB8BF81
:104250004FF0FF3308F102080593334D98F8001032
:1042600003222846FCF71CFA40B14023401B03FA06
:1042700000F0049B034308F10108049398F8001030
:104280002A488DF82810062208F10107FCF708FAE1
:10429000002837D0264B1BBB039B073323F00703B3
:1042A00008330393099B4B44099350E705FB023203
:1042B000012088468AE7002308F101080593194682
:1042C0000A25404610F8012B303A092A03D9002B61
:1042D000C3D00591C1E705FB012101238046F0E72A
:1042E00003AB00932246134B04A93046AFF3008082
:1042F000B0F1FF3F8146D5D1A3895B063FF57EAF84
:1043000009987DE703AB009322460A4B04A9304687
:1043100000F088F8ECE700BF745700002057000059
:104320009457000054570000265700002A570000F9
:1043300000000000E74000002DE9F04791461F46CD
:104340008A680B69DDF820809342B8BF1346C9F82C
:10435000003091F8432006460C4612B10133C9F8EB
:1043600000302368990642BFD9F800300233C9F8FB
:104370000030256815F0060507D104F1190AE36835
:10438000D9F800209B1AAB4228DC94F8433022680D
:10439000003318BF012392062DD404F1430239469D
:1043A0003046C047013020D02368E568D9F80020A6
:1043B00003F00603042B08BFAD1AA36822690CBFE3
:1043C00025EAE57500259342C4BF9B1AED184FF00E
:1043D00000091A344D451AD1002008E00123524645
:1043E00039463046C047013003D14FF0FF30BDE8B9
:1043F000F0870135C3E7E1185A1C302081F84300EB
:10440000224494F8451082F843100233C5E7012393
:10441000224639463046C0470130E6D009F101094D
:10442000D8E700002DE9F04301F1430C0C46097E6A
:1044300085B06E291746064698460C9A00F0B38060
:1044400022D8632936D00AD8002900F0B98058292B
:1044500000F0838004F1420584F8421032E06429C0
:1044600001D06929F6D120681368050603F104011B
:104470002AD51B681160002B03DA2D225B4284F8D9
:1044800043206F480A2239E0732900F09D8008D844
:104490006F2920D07029DDD1236843F020032360E9
:1044A00003E0752917D07829D4D1782384F84530D2
:1044B000644855E01368191D1B68116004F142053A
:1044C00084F8423001238CE01B68116010F0400F2B
:1044D00018BF1BB2CFE713682568181D10602806A7
:1044E00001D51B6802E06806FBD51B8854486F297C
:1044F00014BF0A220822002184F843106568A560D1
:10450000002DC0F29580216821F004012160002B6C
:104510003DD1002D40F08E806546082A0BD12368DE
:10452000DB0708D5236962689A42DEBF302305F8AD
:10453000013C05F1FF35ACEB05032361CDF80080AC
:104540003B4603AA21463046FFF7F6FE01304DD127
:104550004FF0FF3005B0BDE8F083394884F84510CE
:10456000136821681D1D1B6815600A060BD5CA0754
:1045700044BF41F0200121601BB9226822F02002D3
:1045800022601022B7E74D0648BF9BB2EFE76546B1
:10459000B3FBF2F102FB1133C35C05F8013D0B469E
:1045A0000029F5D1B9E7136825686169181D106005
:1045B00028061B6801D5196002E06A06FBD5198040
:1045C000002323616546B9E71368191D11601D6852
:1045D000626800212846FCF763F808B1401B606060
:1045E00063682361002384F84330A7E723692A46E0
:1045F00039463046C0470130AAD023689B0713D400
:10460000E068039B9842B8BF1846A3E701234A46D7
:1046100039463046C04701309AD00135E368039AE5
:104620009B1AAB42F2DCEBE7002504F11909F5E730
:10463000002BACD1037884F8423004F142056CE7DA
:10464000315700004257000038B5064C002305469C
:104650000846236000F0D8FB431C02D1236803B155
:104660002B6038BDC8E9FF1FF8B50E461446054655
:1046700018B183690BB900F0AFF9214B9C422AD1E4
:104680006C68A369A360A3891A072ED5236963B355
:1046900023692068C01A6369F6B28342374604DC96
:1046A0002146284600F02EF928BBA368013BA360F1
:1046B00023685A1C22601E7063690130834204D053
:1046C000A389DB0719D50A2E17D12146284600F009
:1046D00019F990B10FE00B4B9C4201D1AC68D0E7C7
:1046E000094B9C4208BFEC68CBE72146284600F006
:1046F0000DF80028CCD04FF0FF373846F8BD00BF8A
:10470000745700009457000054570000324B70B5A6
:104710001D6806460C4625B1AB6913B9284600F062
:104720005BF92E4B9C420FD16C68B4F90C309AB2F5
:1047300015072CD4D00611D40922326043F040036F
:10474000A3814FF0FF303EE0254B9C4201D1AC6885
:10475000EBE7244B9C4208BFEC68E6E7510712D513
:10476000616B41B104F14403994202D03046FFF736
:10477000FBFB00236363A38923F02403A3810023AD
:10478000636023692360A38943F00803A38123693D
:104790004BB9A38903F42073B3F5007F03D02146FE
:1047A000304600F0C7F9A28912F001030CD00023B3
:1047B000A36063695B42A361236953B9B4F90C3008
:1047C00013F08000BAD170BD920758BF6369A3602F
:1047D000F2E70020F7E700BF4C00FF1F745700000E
:1047E000945700005457000008B5062000F00CFA5A
:1047F000012000F01FFB00008A892DE9F0410546E9
:1048000010070C4658D44B68002B05DC0B6C002BB2
:1048100002DC0020BDE8F081E66A002EF9D000231A
:1048200012F480522F68216A2B6032D0606DA38908
:104830005A0705D56368C01A636B0BB1236CC01AA5
:1048400000230246E66A216A2846B047431CA38932
:1048500006D129681D2948D8294ACA40D60744D517
:1048600000226260D9042269226004D5421C01D171
:104870002B6803B96065616B2F600029C9D004F112
:104880004403994202D02846FFF76EFB0020606384
:10489000C0E701232846B047411CC8D12B68002B34
:1048A000C5D01D2B01D0162B01D12F60B1E7A389F4
:1048B00043F04003A381ADE70F69002FA9D0930710
:1048C0000E6808BF4B690F6018BF0023A6EB0708EE
:1048D0008B60B8F1000F9CDD43463A46216AA66A18
:1048E0002846B047002806DCA38943F04003A38193
:1048F0004FF0FF308EE70744A8EB0008E9E700BF60
:104900000100402038B50B6905460C46DBB118B1F3
:1049100083690BB900F060F80C4B9C4209D16C68BC
:10492000B4F90C307BB121462846BDE83840FFF78A
:1049300063BF074B9C4201D1AC68F1E7054B9C4239
:1049400008BFEC68ECE7002038BD00BF74570000DA
:104950009457000054570000002310B50446C0E9E6
:104960000033836081814366C281C0E9043383617F
:10497000194608225C30FFF7EFFA054B6362054BDE
:10498000A362054BE362054B2462236310BD00BFA5
:10499000414C0000634C00009B4C0000BF4C0000E9
:1049A000014900F085B800BF0549000070B54A1EF6
:1049B000682555430E4605F17401FFF723FB0446B5
:1049C00040B10021C0E900160C30A06005F168027A
:1049D000FFF7C2FA204670BD836910B5044633BBA9
:1049E000C0E912330365124B124A1B688262984277
:1049F00004BF0123836100F01FF86060204600F0CF
:104A00001BF8A060204600F017F80022E0600421A7
:104A10006068FFF7A1FF01220921A068FFF79CFF52
:104A200002221221E068FFF797FF0123A36110BD66
:104A30001C570000A1490000F8B51B4B1E68B36964
:104A4000074613B93046FFF7C7FF4836D6E90134A9
:104A5000013B03D5336833B13668F7E7B4F90C503E
:104A60006DB16834F4E704213846FFF79FFF3060EA
:104A70000028F1D10C233B6004462046F8BD0B4BC7
:104A80006566C4E90055A560C4E90335C4E9055568
:104A90000822294604F15C00FFF75EFAC4E90D55CF
:104AA000C4E91255E9E700BF1C5700000100FFFFF1
:104AB0002DE9F8438046894600F14804002614B9E0
:104AC0003046BDE8F883D4E90175013F01D524687B
:104AD000F5E7AB89012B07D9B5F90E30013303D0C7
:104AE00029464046C84706436835EEE770B50E468E
:104AF000B1F90E10002996B014461D4607DA0023BE
:104B00002B60B3891A0610D44FF480630EE06A4616
:104B100000F0FCF80028F2DB019A02F47042A2F5E2
:104B200000535A425A412A60EEE740230020236096
:104B300016B070BD8B8973B59D0706460C4607D528
:104B400004F14703236023610123636102B070BD58
:104B500001AB6A46FFF7CAFF009905463046FFF7EA
:104B600051FA48B9B4F90C309A05EFD423F0030395
:104B700043F00203A381E3E70D4BB362A3892060F6
:104B800043F08003A381009B6361019B20615BB1C3
:104B9000B4F90E10304600F0CBF828B1A38923F009
:104BA000030343F00103A381A3891D43A581CDE73E
:104BB000A1490000704770471F2938B504460D46CB
:104BC00004D9162303604FF0FF3038BD426C12B198
:104BD00052F821304BB9204600F030F82A46014601
:104BE0002046BDE8384000F017B8012B0AD0591C08
:104BF00003D1162303600120E7E7002442F8254093
:104C0000284698470020E0E7024B01461868FFF766
:104C1000D3BF00BF4C00FF1F38B5074C002305462B
:104C200008461146236000F0D7F8431C02D12368E0
:104C300003B12B6038BD00BFC8E9FF1F00F0BCB84E
:104C400010B50C46B1F90E1000F094F80028ABBF77
:104C5000636DA3891B1823F48053ACBF6365A381E4
:104C600010BD2DE9F0411F468B89DB0505460C463A
:104C7000164605D502230022B1F90E1000F068F89F
:104C8000A389B4F90E1023F48053A38132463B4626
:104C90002846BDE8F04100F017B810B50C46B1F950
:104CA0000E1000F055F8431CA38915BF606523F46E
:104CB000805343F48053A38118BFA38110BDB1F981
:104CC0000E1000F013B8000038B5074C0546084632
:104CD0001146002222601A4600F0A4F8431C02D1BB
:104CE000236803B12B6038BDC8E9FF1F38B5064CF7
:104CF000002305460846236000F04EF8431C02D10D
:104D0000236803B12B6038BDC8E9FF1F38B5074CD5
:104D10000023054608461146236000F045F8431C71
:104D200002D1236803B12B6038BD00BFC8E9FF1F63
:104D300038B5064C002305460846236000F044F8C9
:104D4000431C02D1236803B12B6038BDC8E9FF1FA3
:104D500038B5074C054608461146002222601A461F
:104D600000F042F8431C02D1236803B12B6038BD28
:104D7000C8E9FF1F38B5074C054608461146002212
:104D800022601A4600F038F8431C02D1236803B1B0
:104D90002B6038BDC8E9FF1F024B58221A604FF044
:104DA000FF307047C8E9FF1F024B58221A604FF0CE
:104DB000FF307047C8E9FF1F024B58221A604FF0BE
:104DC000FF307047C8E9FF1F024B58221A600020CD
:104DD000704700BFC8E9FF1F024B58221A604FF00E
:104DE000FF307047C8E9FF1F024B58221A604FF08E
:104DF000FF307047C8E9FF1F024B58221A604FF07E
:104E0000FF307047C8E9FF1F044A05491368002BAB
:104E100008BF0B461844106018467047E0E1FF1FBA
:104E200000000020024B58221A604FF0FF307047FC
:104E3000C8E9FF1FFEE700BF0702010100000000F4
:104E4000000E0C0080F0FA02000080000102000059
:104E500000002401636F6E66696700675F787461A4
:104E60006C3046726571002E2E2F53444B2F6465B3
:104E700076696365732F4D4B36344631322F647239
:104E800069766572732F66736C5F636C6F636B2EEC
:104E90006300675F7874616C333246726571006DD0
:104EA0006367706C6C30636C6B00434C4F434B5FBB
:104EB0004765744D6367457874436C6B46726571E2
:104EC00000434C4F434B5F4765744F7363304572EB
:104ED000436C6B4672657100434C4F434B5F4765B3
:104EE00074457233326B436C6B4672657100434C90
:104EF0004F434B5F476574506C6C30467265710070
:104F0000434C4F434B5F456E61626C65506C6C3037
:104F100000434C4F434B5F5365745062654D6F6463
:104F20006500434C4F434B5F426F6F74546F506545
:104F3000654D6F6465008002DC020005B8058007DE
:104F40009508000A710B696E7374616E6365203C8D
:104F50002041525241595F53495A4528735F646D4D
:104F6000616D7578426173657329002E2E2F53444D
:104F70004B2F646576696365732F4D4B363446312C
:104F8000322F647269766572732F66736C5F646D1D
:104F9000616D75782E6300444D414D55585F4765EE
:104FA00074496E7374616E636500696E7374616ECB
:104FB0006365203C2041525241595F53495A45286C
:104FC000735F64737069426173657329002E2E2FBD
:104FD00053444B2F646576696365732F4D4B3634AC
:104FE0004631322F647269766572732F66736C5F17
:104FF000647370692E63006D6173746572436F6EC4
:105000006669670066616C736500675F64737069E9
:1050100048616E646C655B305D00675F64737069E6
:1050200048616E646C655B315D00675F64737069D5
:1050300048616E646C655B325D00445350495F4764
:105040006574496E7374616E636500445350495FC3
:105050004D6173746572496E697400535049305FD5
:1050600044726976657249525148616E646C65722A
:1050700000535049315F4472697665724952514814
:10508000616E646C657200535049325F4472697698
:10509000657249525148616E646C6572000000008F
:1050A00002000000030000000500000007000000EF
:1050B00002000000040000000600000008000000DC
:1050C00010000000200000004000000080000000F0
:1050D00000010000000200000004000000080000C1
:1050E00000100000002000000040000000800000D0
:1050F00001000000030000000500000007000000A0
:105100000200000004000000080000001000000081
:1051100020000000400000008000000000010000AE
:105120000002000000040000000800000010000061
:10513000002000000040000000800000000001008E
:105140000C003C100D003C100C00301068616E64C7
:105150006C6520213D204E554C4C00696E73746186
:105160006E6365203C2041525241595F53495A4574
:1051700028735F65646D61426173657329002E2E2B
:105180002F53444B2F646576696365732F4D4B36FF
:10519000344631322F647269766572732F66736C90
:1051A0005F65646D612E6300636F6E6669672021C1
:1051B0003D204E554C4C006368616E6E656C203C22
:1051C0002046534C5F464541545552455F45444D3A
:1051D000415F4D4F44554C455F4348414E4E454C11
:1051E0000074636420213D204E554C4C00282875E6
:1051F000696E7433325F74297463642026203078BA
:1052000031465529203D3D2030007372634164646E
:105210007220213D204E554C4C00646573744164EE
:10522000647220213D204E554C4C00287372635708
:1052300069647468203D3D20315529207C7C2028FC
:105240007372635769647468203D3D20325529208C
:105250007C7C20287372635769647468203D3D200C
:10526000345529207C7C20287372635769647468E4
:10527000203D3D2031365529207C7C2028737263E7
:105280005769647468203D3D2033325529002864F5
:105290006573745769647468203D3D203155292039
:1052A0007C7C2028646573745769647468203D3D74
:1052B00020325529207C7C202864657374576964EA
:1052C0007468203D3D20345529207C7C202864656D
:1052D00073745769647468203D3D20313655292028
:1052E0007C7C2028646573745769647468203D3D34
:1052F0002033325529007472616E7366657242798B
:105300007465732025206279746573456163685202
:10531000657175657374203D3D2030006C696E6B5E
:1053200065644368616E6E656C203C2046534C5F3B
:10533000464541545552455F45444D415F4D4F44AC
:10534000554C455F4348414E4E454C0028287569F1
:105350006E7433325F74296E6578745463642026EA
:1053600020307831465529203D3D20300045444DC0
:10537000415F476574496E7374616E6365004544AF
:105380004D415F496E7374616C6C544344004544F5
:105390004D415F496E69740045444D415F476574F6
:1053A00044656661756C74436F6E66696700454459
:1053B0004D415F5463645365745472616E736665E6
:1053C00072436F6E6669670045444D415F54636484
:1053D0005365744368616E6E656C4C696E6B004515
:1053E000444D415F546364456E61626C65496E74FF
:1053F000657272757074730045444D415F436C650E
:1054000061724368616E6E656C5374617475734646
:105410006C6167730045444D415F4372656174651B
:1054200048616E646C650045444D415F536574434B
:10543000616C6C6261636B0045444D415F50726505
:10544000706172655472616E736665720045444D99
:10545000415F53746172745472616E736665720059
:1054600045444D415F48616E646C6549525100008E
:105470000102030405060708090A0B0C0D0E0F694B
:105480006E7374616E6365203C2066746D41727248
:105490006179436F756E74002E2E2F53444B2F6429
:1054A0006576696365732F4D4B36344631322F6410
:1054B0007269766572732F66736C5F66746D2E63A6
:1054C0000046544D5F476574496E7374616E636541
:1054D0000046544D5F496E69740046544D5F476500
:1054E0007444656661756C74436F6E66696700002D
:1054F00018003C1019003C101A003C101900301024
:10550000696E7374616E6365203C2041525241594B
:105510005F53495A4528735F6770696F42617365CD
:105520007329002E2E2F53444B2F646576696365D3
:10553000732F4D4B36344631322F64726976657263
:10554000732F66736C5F6770696F2E6300475049F5
:105550004F5F50696E496E697400696E7374616E55
:105560006365203C2041525241595F53495A4528B6
:10557000735F706974426173657329002E2E2F5317
:10558000444B2F646576696365732F4D4B36344603
:1055900031322F647269766572732F66736C5F7037
:1055A00069742E63005049545F476574496E737483
:1055B000616E6365005049545F496E697400696E9D
:1055C0007374616E6365203C207561727441727200
:1055D0006179436F756E7400636F6E6669672D3E07
:1055E00062617564526174655F4270730046534C2A
:1055F0005F464541545552455F554152545F4649B7
:10560000464F5F53495A456E286261736529203EB3
:105610003D20636F6E6669672D3E74784669666FDC
:1056200057617465726D61726B0046534C5F4645FD
:1056300041545552455F554152545F4649464F5F6C
:1056400053495A456E286261736529203E3D2063A7
:105650006F6E6669672D3E72784669666F57617432
:1056600065726D61726B0064617461002E2E2F5340
:10567000444B2F646576696365732F4D4B36344612
:1056800031322F647269766572732F66736C5F7541
:105690006172742E6300554152545F476574496EC0
:1056A0007374616E636500554152545F496E69744D
:1056B00000554152545F47657444656661756C746A
:1056C000436F6E66696700000A0034100B003410E7
:1056D0000C0034100D0034100A0028100B002810A4
:1056E0002C2066756E6374696F6E3A200061737367
:1056F000657274696F6E2022257322206661696C61
:1057000065643A2066696C6520222573222C206C22
:10571000696E65202564257325730A005000FF1FFC
:10572000232D302B2000686C4C006566674546478A
:10573000003031323334353637383941424344450D
:10574000460030313233343536373839616263647C
:10575000656600000000000000000000000000007E
:105760000000000000000000000000000000000039
:105770000000000000000000000000000000000029
:105780000000000000000000000000000000000019
:105790000000000000000000000000000000000009
:1057A00000000000000000000000000000000000F9
:1057B00000000000F8B500BFF8BC08BC9E4670476A
:0C57C000F8B500BFF8BC08BC9E4670475E
:0857CC0044ACFF7F0100000066
:0457D400A907000021
:0457D8008107000045
:1057DC0005000000070000000000000009000000A8
:1057EC0000200050008000B00202010100020406FB
:1057FC0001010202C47B000000409C4000409C4020
:10580C0000409C4000409C40000800080008000834
:10581C0000093D0000800000000040015000FF1F07
:10582C00000000007457000094570000545700000B
:10583C00000000000000000000000000000000005C
:10584C00000000000000000000000000000000004C
:10585C00000000000000000000000000000000003C
:10586C00000000000000000000000000000000002C
:10587C00000000000000000000000000000000001C
:040000030000048570
:00000001FF
