:1000000000000320F9040000450500004905000038
:10001000410500004105000041050000000000000E
:100020000000000000000000000000004D0500007E
:1000300041050000000000005105000055050000CA
:10004000590500005D050000610500006505000020
:10005000690500006D0500007105000075050000D0
:10006000790500007D050000810500008505000080
:10007000890500008D050000910500009505000030
:100080009905000041050000410500004105000000
:100090004105000041050000410500004105000048
:1000A0009D050000A1050000A5050000A9050000B0
:1000B000AD050000B1050000B5050000B905000060
:1000C000BD050000C1050000C5050000C905000010
:1000D000CD050000D1050000D50500004105000058
:1000E00041050000410500004105000041050000F8
:1000F00041050000410500004105000041050000E8
:10010000890F000041050000410500004105000085
:1001100041050000410500004105000041050000C7
:1001200041050000410500004105000041050000B7
:1001300041050000410500004105000041050000A7
:1001400041050000D90500000D0F0000E105000089
:10015000E5050000E905000041050000410500003B
:100160004105000041050000ED050000F10500001B
:10017000F5050000F9050000FD050000010600007E
:1001800005060000090600000D060000110600002B
:100190001506000019060000410500004105000099
:1001A0004105000041050000410500004105000037
:1001B0004105000041050000410500004105000027
:1001C0004105000041050000410500004105000017
:1001D0004105000041050000410500004105000007
:1003F000410500004105000041050000FFFFFFFF2F
:10040000FFFFFFFFFFFFFFFFFFFFFFFFFEFFFFFFFD
:10041000162031A1ABBE30484168002901D0354AD1
:1004200011600168002901D1314901608168C26809
:10043000002900D08D46002A01D002F5807A0021E3
:100440008B460F462548264A121A06F0CBFD07F0C8
:10045000ADFF15202549ABBE24490968002001B431
:100460000B780131002B15D0202BF9D0222B01D095
:10047000272B01D11A0001E02022013902B40130FA
:100480000B780131002B05D09A42F9D100224B1E86
:100490001A70E5E76946020092006A446B469A4288
:1004A00006D9043A14681D6815601C600433F6E729
:1004B0006C460725AC43A54604000D0009480028FA
:1004C00002D00948AFF3008006F068FD2000290043
:1004D00001F01EFC06F03CFD0000FF1FE001FF1FC5
:1004E0008CEBFF1F00000000000000001001FF1F48
:1004F000000000200004002072B60A480A4901608A
:100500000A6882F30888094880470949094A0A4B62
:100510009A42BEBF51F8040B42F8040BF8E762B6EA
:100520000648804708ED00E000000000FD6B000079
:10053000249300000000FF1FD401FF1F11040000DE
:10054000FFF7FEBF354800473548004735480047AC
:10055000354800473548004735480047354800478B
:10056000354800473548004735480047354800477B
:10057000354800473548004735480047354800476B
:10058000354800473548004735480047354800475B
:10059000354800473548004735480047354800474B
:1005A000354800473548004735480047354800473B
:1005B000354800473548004735480047354800472B
:1005C000354800473548004735480047354800471B
:1005D000354800473548004735480047354800470B
:1005E00035480047354800473548004735480047FB
:1005F00035480047344800473348004732480047F1
:1006000031480047304800473048004730480047ED
:100610003048004730480047304800474505000053
:10062000490500004D05000051050000550500007A
:10063000B55D0000D15D0000ED5D0000095E0000C9
:10064000255E0000415E00005D5E0000795E0000F6
:10065000955E0000B15E0000CD5E0000E95E000026
:10066000055F0000215F00003D5F0000595F000052
:10067000410500004105000041050000194F000040
:10068000594F0000410500004105000041050000F0
:10069000D56A0000410500000D6B00004105000017
:1006A000456B0000410500007D6B00004105000026
:1006B000994F0000B56B000041050000ED6B000094
:1006C0004105000041050000410500004105000012
:1006D0004105000041050000410500004105000002
:1006E00053B94AB9002908BF00281CBF4FF0FF3199
:1006F0004FF0FF3000F00CB8ADF1080C6DE904CEFE
:1007000006F0A2FADDF804E0DDE9022304B0704748
:10071000704700BF00000000000000000000000063
:1007200001F0FF01102A2BDB10F0070F08D010F8A2
:10073000013B013A8B422DD010F0070F42B3F6D1A6
:10074000F0B441EA012141EA014122F007047FF0BF
:1007500000070023F0E80256083C85EA010586EA16
:10076000010685FA47F5A3FA87F586FA47F6A5FA52
:1007700087F68EB9EED1F0BC01F0FF0102F007025E
:1007800032B110F8013B013A83EA010313B1F8D109
:100790000020704701387047002D06BF35460338EA
:1007A000073815F0010F07D1013015F4807F02BF23
:1007B000013015F4C03F0130F0BC0138704700BF74
:1007C000034613F8012B002AFBD1181A0138704791
:1007D0000348044B834202D0034B03B118477047D0
:1007E000D401FF1FD401FF1F000000000548064987
:1007F000091A891001EBD171491002D0034B03B1E2
:1008000018477047D401FF1FD401FF1F00000000EC
:1008100010B5064C237843B9FFF7DAFF044B13B148
:100820000448AFF300800123237010BDE001FF1FD7
:1008300000000000FC92000008B5054B1BB1054903
:100840000548AFF30080BDE80840FFF7CFBF00BF09
:1008500000000000E401FF1FFC92000080B483B0A0
:1008600000AF0346FB7197F90730002B0BDBFB79D8
:1008700003F01F02074997F907305B09012000FACE
:1008800002F241F8232000BF0C37BD465DF8047B1F
:10089000704700BF00E100E080B582B000AF0346C2
:1008A000FB7197F9073013F1800F01D1012305E0A7
:1008B00097F907301846FFF7D1FF0023184608378D
:1008C000BD4680BD80B483B000AF786039607B687E
:1008D0003A685A6000BF0C37BD465DF8047B70472C
:1008E00080B483B000AF786039607B683A689A6002
:1008F00000BF0C37BD465DF8047B704780B483B001
:1009000000AF78607B68DB6A18460C37BD465DF83F
:10091000047B704780B483B000AF786039607B6837
:100920003A68DA6200BF0C37BD465DF8047B704759
:1009300080B483B000AF78600B46FB701346BB7089
:100940007B681B6823F44052FB7883F00103DBB221
:100950005B0303F400531A43BB7883F00103DBB25B
:100960001B0303F480531A437B681A6000BF0C37E3
:10097000BD465DF8047B704780B483B000AF7860FB
:100980007B681B78DA077B685B781B0703F0E04322
:100990001A437B689B781B0403F47C131A437B681F
:1009A000DB78DB0603F000631A437B681B799B0648
:1009B00003F08063134318460C37BD465DF8047B93
:1009C000704780B483B000AF78607B68DB79DBB2BE
:1009D00018460C37BD465DF8047B704780B582B081
:1009E00000AF786039603B680F2B05D90B4B0C4A80
:1009F0004E210C4806F08EFA7A683B6813441B7847
:100A0000DBB263F07F03D9B27A683B6813440A46CD
:100A10001A7000BF0837BD4680BD00BFE8840000E3
:100A2000D08D00001485000080B582B000AF7860E2
:100A300039603B680F2B05D90B4B0C4A5E210C48E3
:100A400006F068FA7A683B6813441B78DBB203F05F
:100A50007F03D9B27A683B6813440A461A7000BF14
:100A60000837BD4680BD00BFE8840000B88D000097
:100A70001485000080B584B000AFF860B9607A607A
:100A8000BB680F2B05D90F4B0F4A6C210F4806F09E
:100A900041FAFA68BB6813441B78DBB223F03F03CA
:100AA000DAB27B68DBB203F03F03DBB21343D9B2A7
:100AB000FA68BB6813440A461A7000BF1037BD4677
:100AC00080BD00BFE8840000A48D000014850000F4
:100AD00080B582B000AF786039603B680F2B05D9D4
:100AE0000B4B0C4A7C210C4806F014FA7A683B68E0
:100AF00013441B78DBB243F04003D9B27A683B68F9
:100B000013440A461A7000BF0837BD4680BD00BFB7
:100B1000E8840000888D00001485000080B582B054
:100B200000AF78607B68002B05D1064B064A6B212D
:100B3000064806F0EFF97B6800221A7000BF0837FC
:100B4000BD4680BD74850000708D00007C8500006E
:100B500080B485B000AFF8600B467A60FB72FB7A18
:100B6000FA681B01134403F584731968FB7A7A68E9
:100B70000A43F9681B010B4403F584731A6000BF34
:100B80001437BD465DF8047B704780B485B000AF74
:100B9000F8600B467A60FB72FB7AFA681B0113441B
:100BA00003F5847319687B68DA43FB7A0A40F968B5
:100BB0001B010B4403F584731A6000BF1437BD4654
:100BC0005DF8047B704780B485B000AFF8600B46D9
:100BD0007A60FB72FB7AFA681B01134403F5867393
:100BE0007A681A6000BF1437BD465DF8047B704711
:100BF00080B485B000AFF8600B467A60FB72FB7A78
:100C0000FA6810331B0113447A681A6000BF143766
:100C1000BD465DF8047B704780B483B000AF786058
:100C200039607B683A689A6000BF0C37BD465DF852
:100C3000047B704780B483B000AF78607B681B682A
:100C400023F018027B681A6000BF0C37BD465DF8C0
:100C5000047B704780B584B000AFF860B9603B603A
:100C60001346FB71174BD3F80831164A23F00103E2
:100C7000C2F80831144B9B68144A1268012101FA2A
:100C800002F21146104A0B439360012200211048E2
:100C900004F024FD042200210D4804F01FFD012270
:100CA00004210B4804F01AFDFB79002B05D0094BF9
:100CB00001221A70084806F069FD00BF1037BD46D2
:100CC00080BD00BF0070034080F00F404801FF1F4F
:100CD0000080004070DEFF1FD885000080B584B022
:100CE00000AFF860B9603B601346FB71174BD3F857
:100CF0001831164A23F00103C2F81831144B9B68CF
:100D0000144A5268012101FA02F21146104A0B43BB
:100D1000936001220121104804F0E0FC042201212B
:100D20000D4804F0DBFC012205210B4804F0D6FC41
:100D3000FB79002B05D0094B01221A70084806F0F8
:100D400025FD00BF1037BD4680BD00BF00700340C9
:100D500080F00F404801FF1F0080004070DEFF1F41
:100D6000F885000080B584B000AFF860B9603B60E2
:100D70001346FB71174BD3F82831164A23F00103B1
:100D8000C2F82831144B9B68144A9268012101FA79
:100D900002F21146104A0B439360012202211048CF
:100DA00004F09CFC042202210D4804F097FC01226F
:100DB00006210B4804F092FCFB79002B05D0094B6F
:100DC00001221A70084806F0E1FC00BF1037BD464A
:100DD00080BD00BF0070034080F00F404801FF1F3E
:100DE0000080004070DEFF1F1886000080B584B0D0
:100DF00000AFF860B9603B601346FB71174BD3F846
:100E00003831164A23F00103C2F83831144B9B687D
:100E1000144AD268012101FA02F21146104A0B432A
:100E2000936001220321104804F058FC042203219E
:100E30000D4804F053FC012208210B4804F04EFC3D
:100E4000FB79002B05D0094B01221A70084806F0E7
:100E50009DFC00BF1037BD4680BD00BF0070034041
:100E600080F00F404801FF1F0080004070DEFF1F30
:100E70003886000080B584B000AFF860B9603B6090
:100E80001346FB711848FFF7D5FE184B9B6B9AB2BF
:100E9000174BA3F8FE2301220D21164804F01EFC77
:100EA00004220D21134804F019FC01220C211148E1
:100EB00004F014FC104A0C210E4804F025F90F48E8
:100EC00004F066FE0E4A0D210A4804F01DF9FB7974
:100ED000002B05D00B4B01221A700B4806F056FC74
:100EE00000BF1037BD4680BD0080034000C00240F7
:100EF00088DEFF1F0080004080E7FF1FC0E6FF1F65
:100F0000E0E4FF1F70DEFF1F5886000080B582B04E
:100F100000AF184805F0A6FD78601648FFF751FDB0
:100F20000346FB70144B1B68002B14D1134B1B683A
:100F30001349FA78CA54114B1B6801330F4A1360E6
:100F40000E4B1B68072B11D90B4B01221A600B4B60
:100F500000221A600AE04FF480010A48FFF7C0FC43
:100F6000064B00221A60044B00221A6000BF0837AB
:100F7000BD4680BD00A00E4078DEFF1F74DEFF1F5F
:100F80007CDEFF1F40F00F40F8B500AF01220021CA
:100F90004248FFF718FE424B1B68002B3FD1414BE4
:100FA0001B889BB21846404B1B78DBB219463F4B5F
:100FB0003F4A00F039FE3F4B1B681D464FF00006CC
:100FC000022003F009F803464FF0000403FB06F18A
:100FD00005FB04F20A44A5FB030153181946364ADF
:100FE0004FF00003FFF77CFB03460C4619462246F0
:100FF0002A4B0A46C3F800212B4B1B78DBB21A465A
:101000002E4B53F8223001229A402D4B5B6811463B
:101010002B4A0B435360224B01221A603BE0224BC8
:101020001B78DBB21946214B214A002000F0FCFD61
:10103000244B1B681D464FF00006022002F0CCFF37
:1010400003464FF0000403FB06F105FB04F20A44DB
:10105000A5FB030153181946174A4FF00003FFF789
:101060003FFB03460C46194622460C4B0A46C3F882
:1010700000210D4B1B78DBB21A46104B53F822307F
:1010800001229A400E4B9B6811460D4A0B43936018
:10109000034B00221A6000BFF8BD00BF0070034080
:1010A000C4BDFF1FB8BDFF1FC8BDFF1F2401FF1F28
:1010B0001C01FF1FC0BDFF1F40420F004801FF1F62
:1010C00080F00F40BCBDFF1F80B582B000AF7860DC
:1010D00007490848FFF71EFC064A7B68536300BFB8
:1010E000044BDB6A002BFBDA00BF0837BD4680BD2E
:1010F00000000ADA00C0024080B489B000AFBA60D4
:101100007B600346FB810B467B730023BB61B7F911
:101110000E30002B34DAFB895B429BB2FB817B7B78
:101120005B00BA6813441B8807EE903AB8EE677A02
:10113000B7F90E3007EE903AB8EEE76A7B7B9B007A
:101140007A681344D3ED006AC6EE267A77EE677AA2
:10115000C7ED057A7B7B5B00BA6813441A887B7BFA
:101160005B00B9680B441988D7ED057AFCEEE77A85
:1011700017EE903A9BB2CB1A9BB21344FB8321E04B
:101180007B7B5B00BA6813441B8807EE903AB8EE8D
:10119000677AB7F90E3007EE903AB8EEE76A7B7BD4
:1011A0009B007A681344D3ED006AC6EE267A77EE88
:1011B000677AC7ED057AD7ED057AFCEEE77A17EE88
:1011C000903AFB83FB8BB3F5805F02D340F6FF734D
:1011D000FB83FB8B7A7B074931F812201A44064BBC
:1011E0001B681343BB61BB6918462437BD465DF8D5
:1011F000047B70473401FF1F00E5FF1F80B584B0FA
:1012000000AF78600B467B8013463B800023BB60B9
:101210000023FB604FE0FB685B007A6813441B8887
:10122000012B14D0022B22D0002B30D1FB685B00A5
:101230007A6813441B881946344AFB6813441B78A8
:1012400001FA03F31A46BB681343BB6030E0304A2F
:10125000FB6813441B7819462C4AFB6813441B781F
:1012600001FA03F31A46BB681343BB6020E0294A26
:10127000FB6813441B781946244AFB6813441B7807
:1012800001FA03F31A46BB681343BB6010E0FB6826
:101290005B007A6813441B8819461C4AFB68134498
:1012A0001B7801FA03F31A46BB681343BB6000BF07
:1012B000FB680133FB60FB68032BACDD7B881B0202
:1012C0001A46BB681343BB603B88002B12D03B8897
:1012D0000833012202FA03F31A46BB681343BB60CA
:1012E0000D4B1B880E33012202FA03F31A46BB682A
:1012F0001343BB60094B1A68BB6813431846FFF7DA
:10130000E3FE00BF1037BD4680BD00BF4401FF1F94
:101310004001FF1F3C01FF1F147FFF1FC0E4FF1FA0
:1013200080B400AF014B024ADA60FEE700ED00E056
:101330000400FA0590B58FB004AF03460A46FB716E
:101340001346BB71BB79012B04D0022B00F0B78090
:1013500000F04ABCFB794FF4FA6202FB03F3BE4A89
:101360009918FB79BD4A52F823309B0007F1080019
:101370000222039202930423019304230093B84BA7
:10138000042204F091FAFB795B01B64A134407F199
:1013900008010022184603F0E1FFFB795B01B14A26
:1013A0009818FB7904331A46012104F05FF8FB79A1
:1013B0005B01AC4A13440221184604F05BF9F97949
:1013C000FB795B01A74A13441A46A74803F09CFE29
:1013D000FA7913465B001344DB00A44A1344184611
:1013E00004F0D6FBFB794FF4FA6202FB03F30433FB
:1013F0009F4A9C18FB791B019E4A1A44FB79974926
:1014000051F8233003F18043013B9B0007F10800B2
:1014100002210391029304230193042300931346B2
:101420000422214604F040FAFB795B01924A1344FE
:1014300007F108010022184603F090FFFB795B01D9
:101440008D4A9818FB7908331A46032104F00EF8E8
:10145000FB7904331946FB795B01874A13441A462A
:10146000814803F051FEFB799B00844A9918FB796F
:101470007A4A52F823309B0007F1080003220392B6
:10148000029304230193042300937D4B042204F070
:101490000BFAFB795B017B4A134407F10801002238
:1014A000184603F05BFFFB7908331946FB795B01B3
:1014B000744A13441A466C4803F026FE94E3FB7901
:1014C000DB020433704A991807F1080002230393E2
:1014D000042302930423019304230093604B04220A
:1014E00004F0E2F9FB795B01684A9818FB795B012B
:1014F000674A1A4407F10803194603F02FFFFB79E6
:101500005B01624A9818FB7904331A46022103F002
:10151000ADFFF979FB795B015C4A13441A465248E6
:1015200003F0F2FDFA7913465B001344DB004F4AE7
:101530001344184604F02CFBFA7913465B0013445D
:10154000DB000833534A9918FB791A01494B1344BD
:1015500007F108000222039204220292042201925F
:1015600004220092042204F09FF9FB795B014A4AAD
:101570009818FB795B01494A1A4407F10803194698
:1015800003F0ECFEFB795B01434A9818FB790833C2
:101590001A46022103F06AFFFB7904331946FB79EE
:1015A0005B013D4A13441A462F4803F0ADFDFB7919
:1015B0009B00324A991807F1080003230393042380
:1015C000029304230193042300932D4B042204F07F
:1015D0006BF9FB795B012B4A134407F108010022E8
:1015E000184603F0BBFEFB7908331946FB795B0113
:1015F000244A13441A461C4803F086FDFB79284A06
:1016000052F82330274AA2FB03235B097B62FB7954
:10161000234A52F82330234AA2FB031252094FF403
:10162000FA7101FB02F29B1A3B623B6A002B05D167
:101630007B6A013B7B624FF4FA733B627B6AB3F5D2
:10164000FA4F33D94FF4FA437B624FF480011648C6
:10165000FFF746F9C8E200BF187FFF1F98BDFF1FC4
:1016600034C0024000E7FF1F00800040A0E5FF1FDC
:10167000589EFF1F0071034040E9FF1FA8BDFF1FD8
:101680008CF00F40C0E3FF1FD0BDFF1FC0E8FF1F5D
:1016900020E8FF1FF0DDFF1F60EAFF1F40E4FF1F8F
:1016A00050DEFF1FD34D621040F00F407B6A032BCA
:1016B00000F2BC8101A252F823F000BFCD16000059
:1016C000691700006518000065180000FB79DB024F
:1016D0005C4A99183B6A9B0007F1080002220392BA
:1016E00002930423019304230093574B042204F034
:1016F000DBF8FB795B01554A9818FB795B01544A8A
:101700001A4407F10803194603F028FEFB795B0130
:101710004E4A9818FB7904331A46022103F0A6FEBC
:10172000FA7913465B001344DB001433494A9918D5
:10173000FB791A01484B134407F108000222039277
:10174000042202920422019204220092042204F054
:10175000ABF8FB795B01414A134407F10801002211
:10176000184603F0FBFD1AE2FB79DB02354A9918B3
:1017700007F10800022303934FF4FA630293042352
:10178000019304230093304B042204F08DF8FB797D
:101790005B012E4A9818FB795B01314A1A4407F124
:1017A0000803194603F0DAFDFB79DB02254A991894
:1017B0003B6A9B0007F10800022203920293042374
:1017C000019304230093204B042204F06DF8FB796D
:1017D0005B01234A9818FB795B011D4A1A4407F103
:1017E0000803194603F0BAFDFB795B011C4A9818FF
:1017F000FB7904331A46022103F038FEFA791346C6
:101800005B001344DB001433124A9918FB791A0168
:10181000114B134407F108000222039204220292A2
:101820000422019204220092042204F03DF8FB7984
:101830005B010A4A134407F108010022184603F02D
:101840008DFDACE1D0BDFF1F34C0024020E8FF1F7A
:1018500020E5FF1FF0DDFF1F0071034040E4FF1F84
:10186000A0E7FF1FFB79644A52F82330023B9B0834
:10187000624A1360FB79604A52F82330023B9A08AF
:10188000FB795D4951F82330023B03F00303134415
:1018900002335B4A1360FB79DB025A4A9918FB79E1
:1018A000554A52F82330023B23F0030307F10800A6
:1018B0000222039202930423019304230093524BC8
:1018C000042203F0F1FFFB795B01504A9818FB7981
:1018D0005B014E4A1A4407F10803194603F03EFD26
:1018E000FB795B01494A9818FB7904331A460221B7
:1018F00003F0BCFDFB79DB02424A9C18FB793E4AAF
:1019000052F82330023B9A08FB793B4951F82330C7
:10191000023B03F00303134402339B0007F108006A
:101920000222039202930423019304230093364B73
:101930000422214603F0B8FFFB795B01344A981872
:10194000FB795B01334A1A4407F10803194603F097
:1019500005FDFB795B012E4A9818FB7904331A4682
:10196000022103F083FDFB799B002B4A9918FB7938
:101970005B011833254A1A4407F10800002303933A
:1019800004230293042301930423009313460422A7
:1019900003F08AFFFB795B01204A9818FB795B0111
:1019A0001F4A1A4407F10803194603F0D7FCFA79D5
:1019B00013465B001344DB000C331A4A9918FB7979
:1019C0001A01194B134407F10800022203920C225A
:1019D00002920422019204220092042203F064FF86
:1019E000FB795B010E4A134407F1080100221846F7
:1019F00003F0B4FCD3E000BF50DEFF1FA0E8FF1FE0
:101A0000C0E9FF1FD0BDFF1F34C0024020E8FF1F08
:101A1000A0E7FF1F20E5FF1F60DEFF1F40E4FF1F60
:101A2000E0E9FF1FF0DDFF1F00710340FB79DB02DF
:101A30006F4A991807F10800022303934FF4FA63E1
:101A4000029304230193042300936A4B042203F0BE
:101A50002BFFFB795B01684A9818FB795B01664AAA
:101A60001A4407F10803194603F078FCFB795B017F
:101A7000614A9818FB7904331A46022103F0F6FCF8
:101A8000FB79DB025A4A99183B6A9B0007F1080070
:101A90000222039202930423019304230093554BE3
:101AA000042203F001FFFB795B01544A9818FB798B
:101AB0005B01534A1A4407F10803194603F04EFC30
:101AC000FB795B014D4A9818FB7904331A460221D1
:101AD00003F0CCFC7B6A033B07F108000122039270
:101AE00002930123019301230093464B01224649AF
:101AF00003F0DAFEFB795B01444A9818FB795B013D
:101B0000434A1A4407F10803194603F027FCFB79FE
:101B10009B00404A9918FB795B011833364A1A44F6
:101B200007F1080000230393042302930423019385
:101B3000042300931346042203F0B6FEFB795B01F5
:101B4000334A9818FB795B01334A1A4407F10803BA
:101B5000194603F003FCFA7913465B001344DB00DB
:101B60000C332E4A9918FB791A012D4B134407F1B7
:101B70000800022203920C22029204220192042203
:101B80000092042203F090FEFB795B01224A134489
:101B900007F108010022184603F0E0FB00BFFB79C3
:101BA000DB00204A991807F1080002230393082359
:101BB000029304230193042300930E4B042203F0A9
:101BC00073FEFB795B010E4A134407F10801002202
:101BD000184603F0C3FBFB795B01094A1344022159
:101BE000184603F047FD00BF00BF2C37BD4690BD2F
:101BF000D0BDFF1F34C0024020E8FF1FA0E7FF1F39
:101C000020E5FF1F0502FF1F0402FF1F40E4FF1F26
:101C100000EBFF1F60DEFF1FE0E9FF1FF0DDFF1F8D
:101C200000710340D0DDFF1F90B585B000AFBA60F2
:101C30007B600346FB810B467B73B7F90E000D4CAE
:101C4000797B7B68BA68FFF757FA0346636304E061
:101C50004FF000710748FEF75DFE0648FEF74EFEA6
:101C6000034603F00073002BF2D000BF1437BD46CB
:101C700090BD00BF00C0024080B582B000AF4FF001
:101C800000037B6000233B6023E01C4B1B881A464B
:101C90001B4B1B6813431846FFF716FA194B9B6B37
:101CA00099B2194A3B6822F813103B68012B0DDDED
:101CB000154A3B6832F8133007EE903AF8EE677A2F
:101CC00097ED017A77EE277AC7ED017A3B68013309
:101CD0003B603B68B3F5007FD7DB97ED017ADFED22
:101CE0000B6AC7EE267AC7ED017A7B6807EE903A59
:101CF000B0EE670A0837BD4680BD00BF84DEFF1F17
:101D0000E0EAFF1F00C0024088DEFF1F0000FF4323
:101D10002DE9F048B2B004AF00237B670023C7F879
:101D2000B430022002F058F9C7F8A400002387F865
:101D30005030002387F85130022387F852300023B7
:101D400087F85330002387F85430002387F8483051
:101D5000002387F84930012387F84A30002387F8A9
:101D60004B30002387F84C30002387F840300023A5
:101D700087F84130042387F84230002387F8433046
:101D8000002387F8443000233B77D24B3B6210237B
:101D90007B62002387F82830002387F8293000234E
:101DA00087F82A30FA23FB62FA233B63FA237B632A
:101DB000012387F83830012387F83930002387F86A
:101DC0003A30002387F83B30002387F83C3000236B
:101DD00087F83D301A20FEF75FFD4220FEF75CFDDC
:101DE0003020FEF759FD01F0E1FD01F041FD012336
:101DF0003B7600237B7607F118031A461621B64876
:101E000004F028FB07F118031A461A21B34804F01E
:101E100021FB07F118031A461521AF4804F01AFBFD
:101E20004FF48001AC48FEF74DFD4FF08061AB48A8
:101E3000FEF748FD4FF40011A748FEF743FD0123CC
:101E40003B7500237B75A64B4FF4A0729A60A54B9F
:101E50005B69A44A43F004035361A24B5B68A14A47
:101E600043F0040353609E4B4FF4A0725A609D4BA5
:101E70005B699C4A43F0020353619A4B5B68994A41
:101E800043F002035360984B5B69974A43F0200389
:101E90005361954B5B69944A43F080035361924BC5
:101EA0005B69914A43F0010353618F4B5B698E4A32
:101EB00043F4007353613B1D184604F05FFD4FF47B
:101EC000E1337B600123FB7301233B74022002F0AA
:101ED00083F802463B1D1946844804F0D3FB4FF4B7
:101EE0000221824804F086FD07F11C03D7F8A420E4
:101EF00019467F4802F076FD7D4B1B687C4A43F40F
:101F0000003313607A4B1B68794A43F480231360D3
:101F1000002200217648FEF70BFD07F1500318461A
:101F2000FEF72AFD0246734B1A6007F14803184674
:101F3000FEF722FD0246704B1A6007F14003184677
:101F4000FEF71AFD02466D4B1A6007F1940318461E
:101F5000FEF7E4FD07F194031946694804F0F6FA28
:101F6000022002F039F803461D464FF000062B46CA
:101F700034464FF000014FF00002620142EAD362A2
:101F800059010B4614465B1B64EB06044FF000013D
:101F90004FF00002620242EAD35259020B46144645
:101FA0005B1944EB06044FF000014FF00002A20160
:101FB00042EA93629901C91A62EB04024B1942EB9F
:101FC0000604184621464F4A4FF00003FEF788FBEF
:101FD00003460C461A464C4B1A60022001F0FCFFE7
:101FE00003461D464FF00006294632464FF00003D7
:101FF0004FF00004540144EAD1644B0119462246D3
:10200000491B62EB06024FF000034FF00004D401BD
:1020100044EA5164CB015B1A64EB02044FF0000107
:102020004FF00002E20142EA5362D901C91A62EBA1
:1020300004024B1942EB060418462146314A4FF080
:102040000003FEF74DFB03460C461A462E4B5A6022
:102050002D4B5B681A4600212948FEF7C9FD07F1A0
:102060007803184604F098F9022387F8783007F1CE
:1020700078031946254804F00FF9022001F0ACFF5F
:1020800003469B081D464FF000062B4634464FF092
:1020900000014FF00002620142EAD36259010B468F
:1020A00014465B1B64EB06044FF000014FF0000286
:1020B000A20042EA937299000B4614465B1944EB66
:1020C00006044FF000014FF00002E20042EA5372B2
:1020D000D9001DE000093D0040F00F4000F10F4025
:1020E0000090044000F00F4080F00F4000A00E4030
:1020F00000C0024000E5FF1FC0E4FF1FE0EAFF1F31
:102100000070034040420F00FC01FF1F00800340AD
:102110000B46144618462146AE4A4FF00003FEF720
:10212000DFFA03460C461946AB48FEF775FDAB488F
:1021300002F08AFB00237B6708E07B6F3F22194691
:10214000A648FEF797FC7B6F01337B677B6F0B2BF9
:10215000F3D900237B6707E07B6F19469F48FEF7A2
:10216000B7FC7B6F01337B677B6F032BF4D91422A1
:102170000C219A48FEF77EFC3F220D219748FEF77E
:1021800079FC00237B6707E07B6F19469348FEF7D5
:1021900025FC7B6F01337B677B6F0D2BF4D907F137
:1021A0005803184603F0B2F807F1580319468C4853
:1021B00003F05AF800228A498A4803F0D7FA00222D
:1021C0008949884803F050FB01228549874803F07C
:1021D000CDFA00228649854803F046FB0222804959
:1021E000844803F0C3FA00228349824803F03CFB91
:1021F00003227B49814803F0B9FA002280497F48D5
:1022000003F032FB042276497E4803F0AFFA052240
:1022100073497D4803F0AAFA062271497B4803F00E
:10222000A5FA07226E497A4803F0A0FA08226C4901
:10223000784803F09BFA09226949774803F096FA37
:102240000A226749754803F091FA0B2264497448E1
:1022500003F08CFA0C226249724803F087FA0022DC
:102260007149704803F000FB0D225D496F4803F08F
:102270007DFA00237B670AE07A6F7B6F52016C491D
:102280000A446C4941F823207B6F01337B677B6FE5
:10229000032BF1D9684BFF221A70684B1B6843F47B
:1022A00014531846FEF710FF00237B670DE07B6F89
:1022B000634A52F8233001229A407B6F1146614AEB
:1022C00042F823107B6F01337B677B6F032BEED9C2
:1022D0005D4B1B689AB25D4B1A8007F15C000123CD
:1022E00003934FF48063029302230193022300932C
:1022F000574B0422574903F0D7FA07F15C03002239
:102300001946554803F02AF80D220121524803F0DE
:10231000ADF80221504803F0ADF94F4A0C21304886
:1023200002F0F2FE3F4803F033FC07F15C000323A8
:10233000039340F2FC73029302230193042300935E
:10234000464B0222414903F0AFFA07F15C03002239
:102350001946434803F002F8414A0D21204802F093
:10236000D3FE0023C7F8B43078E13E4AD7F8B43042
:10237000012122F813103C4B01221A803B4B012211
:102380001A803B4B00221A804FF40063A7F8B0304C
:102390000023A7F8AE3040F6FF73A7F8AC30324BFD
:1023A0001988324B1B881A462E48FEF727FF314A00
:1023B000D7F8B43032F813301A46B7F9B0301344B6
:1023C0001A462D4B1B6813431846FEF77DFE00236B
:1023D0007B67A6E040420F000080034000100240EF
:1023E00000800040A0E5FF1F550C0000B8E5FF1F6E
:1023F000DD0C0000D0E5FF1F650D0000E8E5FF1FC4
:10240000ED0D000000E6FF1F18E6FF1F30E6FF1F7E
:1024100048E6FF1F60E6FF1F78E6FF1F90E6FF1FFC
:10242000A8E6FF1FC0E6FF1F750E0000D8E6FF1FDD
:10243000A0E7FF1F60DEFF1F0402FF1FC0E4FF1FB5
:102440004801FF1FA8BDFF1FE0EAFF1F84DEFF1F3A
:1024500088DEFF1F38C0024080E7FF1F34C0024003
:10246000E0E4FF1F087FFF1F107FFF1F127FFF1F89
:10247000147FFF1F3401FF1F00E5FF1FFFF7FCFB68
:1024800087ED2A0A654B1B8807EE903AF8EEE77A4B
:1024900097ED2A7A77EE677AF5EEC07AF1EE10FAC8
:1024A0001ED5B7F8B030A7F8AE30B7F9B020B7F9FD
:1024B000AC301344DA0F13445B10A7F8B030584A1D
:1024C000D7F8B43032F813301A46B7F9B0301344A5
:1024D0001A46544B1B6813431846FEF7F5FD1DE0E2
:1024E000B7F8B030A7F8AC30B7F9B020B7F9AE30D4
:1024F0001344DA0F13445B10A7F8B030484AD7F8FA
:10250000B43032F813301A46B7F9B03013441A46D3
:10251000444B1B6813431846FEF7D6FD7B6F01330F
:102520007B677B6FFF2BA9D9B7F9AC20B7F9AE3029
:10253000D31A012B5BDC3A4AD7F8B43032F81330A7
:102540001A46B7F9AE3013441A46364B1B6813438C
:102550001846FEF7B9FDFFF78FFB87ED2A0A304AD0
:10256000D7F8B43032F813301A46B7F9AC30134408
:102570001A462C4B1B6813431846FEF7A5FDFFF7C0
:102580007BFB87ED260A254B1B8807EE903AF8EE79
:10259000E77A97ED2A7A77EE677AFDEEE77A17EE1B
:1025A000903A83EAE372A2EBE3721C4B1B8807EEBE
:1025B000903AF8EEE77A97ED267A77EE677AFDEEB5
:1025C000E77A17EE903A002BB8BF5B429A4207DCDD
:1025D000B7F8AE10144AD7F8B43022F8131006E05A
:1025E000B7F8AC10104AD7F8B43022F813100C4AE0
:1025F000D7F8B43032F8133019460B4AD7F8B43054
:1026000032F813300B441A46064B1B681343184626
:10261000FEF75AFD00237B6710E000BF1801FF1F83
:102620003401FF1F00E5FF1F1C01FF1F7B6FBB4A2A
:10263000002122F813107B6F01337B677B6F032B24
:10264000F4D9B74B1988B74B1B881A46B348FEF725
:10265000D5FDD7F8B4300133C7F8B430D7F8B4306B
:10266000032B7FF682AEB04B1B68002BFBD0AF4B29
:102670001B78DBB25A3BA52B01F2068001A252F86F
:1026800023F000BF312900003D2A0000C52C0000C6
:102690004F2D00008D2D0000C72D0000E52F0000FC
:1026A000893600008936000089360000A530000018
:1026B000DB3000001531000089360000893600004B
:1026C000893600008936000089360000893600000E
:1026D0008936000059310000893600008936000033
:1026E00089360000893600008936000089360000EE
:1026F000893600008936000089360000DB31000091
:102700008132000095330000C33300008936000099
:1027100089360000893600008936000089360000BD
:102720008936000001340000893600008936000037
:102730008936000089360000C13400008936000067
:10274000893600008936000089360000893600008D
:10275000893600008936000089360000893600007D
:10276000893600008936000089360000893600006D
:10277000893600008936000089360000893600005D
:10278000893600008936000089360000893600004D
:10279000893600008936000089360000893600003D
:1027A000893600008936000089360000893600002D
:1027B000893600008936000089360000893600001D
:1027C000893600008936000089360000893600000D
:1027D00089360000893600008936000089360000FD
:1027E00089360000893600008936000089360000ED
:1027F00089360000893600008936000089360000DD
:1028000089360000893600008936000089360000CC
:1028100089360000893600008936000089360000BC
:1028200089360000893600008936000089360000AC
:10283000893600008936000089360000893600009C
:10284000893600008936000089360000893600008C
:10285000893600008936000089360000893600007C
:10286000893600008936000089360000893600006C
:10287000893600008936000089360000893600005C
:10288000893600008936000089360000893600004C
:10289000893600008936000089360000893600003C
:1028A000893600008936000089360000893600002C
:1028B000893600008936000089360000893600001C
:1028C000893600008936000089360000893600000C
:1028D00089360000893600008936000089360000FC
:1028E00089360000893600008936000089360000EC
:1028F00089360000893600008936000089360000DC
:1029000089360000893600008936000089360000CB
:10291000893600007135000083360000087FFF1FF4
:10292000107FFF1F127FFF1F78DEFF1F7CDEFF1F5F
:10293000634B5B7887F8B330614B9B78DBB29AB21C
:102940005F4BDB78DBB29BB21B029BB213449BB2A2
:10295000A7F8B0305A4B1B79DBB21A46584B5B795B
:10296000DBB21B021A44564B9B79DBB21B041A44A0
:10297000534BDB79DBB21B061344C7F8A03097F842
:10298000B330032B00F2848697F8B3304D4A52F8E7
:102990002330B3F5FA7F80F07B8697F8B35097F831
:1029A000B330484A52F8234097F8B310B7F9B00053
:1029B000454B464AFEF7A0FB0146454A4FF4FA73E1
:1029C00003FB05F3234442F82310D7F8A0301D463B
:1029D0004FF00006022001F0FFFA03464FF000041A
:1029E00003FB06F105FB04F20A44A5FB030153189F
:1029F0001946384A4FF00003FDF772FE03460C46B5
:102A000025461C4697F8B32097F8B3302D4951F866
:102A1000233031494FF4FA7000FB02F2134441F8BD
:102A2000234097F8B330274A52F8232097F8B33061
:102A30000132244941F8232000F02ABE204B5B7864
:102A400087F8B3301E4B9B78DBB29AB21C4BDB7815
:102A5000DBB29BB21B029BB21344A7F89E30184B0B
:102A60001B79DBB29AB2164B5B79DBB29BB21B02CD
:102A70009BB213449BB2A7F8B03097F8B330032B46
:102A800000F2088600237B673EE07B6F03F00103C2
:102A9000002B25D0B7F8B0305B429BB218B297F844
:102AA000B3507C6F97F8B310074B084AFEF724FB2E
:102AB00001460A4A6B02234442F8231021E000BF7A
:102AC0007CDEFF1F98BDFF1F2401FF1F1C01FF1F9D
:102AD000187FFF1F40420F00589EFF1FD0BDFF1FF1
:102AE00097F8B3507C6F97F8B310B7F9B000C84BA4
:102AF000C84AFEF701FB0146C74A6B02234442F86D
:102B000023107B6F01337B677B6FB3F5007FBCD3F2
:102B100097F8B32097F8B330BF49D2020A4412683D
:102B2000BE4941F8332097F8B34097F8B310B84B3B
:102B3000B84A0020FEF7E0FA0146B84AE300134421
:102B40005960B7F89E305B089BB29DB24FF000060B
:102B5000022001F041FA03464FF0000403FB06F1A6
:102B600005FB04F20A44A5FB030153181946AC4ABD
:102B70004FF00003FDF7B4FD03460C4697F8B32071
:102B80001846A84913465B001344DB000B4404338A
:102B90001860B7F89E504FF00006022001F01CFAB2
:102BA00003464FF0000403FB06F105FB04F20A4460
:102BB000A5FB030153181946994A4FF00003FDF78E
:102BC0008FFD03460C4697F8B320184695491346E7
:102BD0005B001344DB000B4408331860B7F89E50C9
:102BE0004FF00006022001F0F7F903464FF0000411
:102BF00003FB06F105FB04F20A44A5FB030153188D
:102C00001946874A4FF00003FDF76AFD03460C465C
:102C100097F8B3201846834913465B001344DB0042
:102C20000B440C331860B7F89E504FF0000602209A
:102C300001F0D2F903464FF0000403FB06F105FB57
:102C400004F20A44A5FB030153181946744A4FF0D5
:102C50000003FDF745FD03460C4697F8B3201846E0
:102C6000704913465B001344DB000B4410331860BB
:102C7000B7F89E305B089BB29DB24FF00006022071
:102C800001F0AAF903464FF0000403FB06F105FB2F
:102C900004F20A44A5FB030153181946604A4FF099
:102CA0000003FDF71DFD03460C4697F8B3201846B8
:102CB0005C4913465B001344DB000B44143318607B
:102CC00000F0E8BC584B5B7887F8B330564B9B78E4
:102CD000DBB21A46544BDB78DBB21B021A44524B70
:102CE0001B79DBB21B041A444F4B5B79DBB21B062A
:102CF0001344C7F8A03097F8B330032B00F2CC840C
:102D0000D7F8A0301D464FF00006022001F064F90C
:102D100003464FF0000403FB06F105FB04F20A44EE
:102D2000A5FB0301531819463D4A4FF00003FDF778
:102D3000D7FC03460C4697F8B3201846394913468A
:102D40005B001344DB000B44186000F0A5BC364B5D
:102D50005B7887F8B330344B9B78DBB21A46324B42
:102D6000DB78DBB21B021A442F4B1B79DBB21B044E
:102D70001A442D4B5B79DBB21B061A4497F8B3302B
:102D800011462A4A42F8231000F089BC00237B67D1
:102D900014E07B6F5A1C7B6F23498A5CD1B2244AB2
:102DA000D1547B6FD8B27B6F01331F4AD35CDBB247
:102DB0001946FEF7BFFA7B6F01337B677B6F032BEE
:102DC000E7D900F06CBC00237B6712E07B6F184AE8
:102DD000D35C002B0AD07B6FD9B20D4B0D4A00207B
:102DE000FEF78AF903461846FEF76EF97B6F01334A
:102DF0007B677B6F032BE9D900237B679CE07B6FAC
:102E00000B4AD35C012B15D0022B4FD091E000BFB1
:102E10002401FF1F1C01FF1FD0BDFF1FD0DDFF1FBE
:102E200040420F00F0DDFF1F7CDEFF1F50DEFF1F62
:102E3000047FFF1F022001F0CFF803461D464FF02C
:102E40000006AB46B4461BEB0B034CEB0C049B4655
:102E5000A4461BEB050B4CEB060C4FF000014FF0AA
:102E600000024FEACC0242EA5B724FEACB018B468A
:102E700094461BEB050B4CEB060C1BEB0B034CEBCE
:102E80000C049B46A44658466146B54A4FF00003E1
:102E9000FDF726FC03460C4618462146B14A7B6FD7
:102EA000014610331B011344196042E0022001F077
:102EB00093F803461D464FF00006AB46B4461BEBA5
:102EC0000B034CEB0C049B46A4461BEB050B4CEB95
:102ED000060C4FF000014FF000024FEACC0242EA2C
:102EE0005B724FEACB018B4694461BEB050B4CEB18
:102EF000060C1BEB0B034CEB0C049B46A4465846FC
:102F00006146974A4FF00003FDF7EAFB03460C4683
:102F100018467A6F944913465B001344DB000B4458
:102F20001A6890497B6F024410331B010B441A60EE
:102F300000BF7B6F01337B677B6F032B7FF65FAF37
:102F400000237B674AE07B6F884AD35C012B02D069
:102F5000022B1FD03FE0834A7B6F1B01134403F514
:102F600084731A687F497B6F42F001021B010B4496
:102F700003F584731A607A6F7A497B6F7C484FF44B
:102F8000FA6404FB02F20244126810331B010B4482
:102F90001A6020E0734A7B6F1B01134403F58473AE
:102FA0001A6870497B6F42F001021B010B4403F564
:102FB00084731A607A6F6B48796F6B4C13465B00B1
:102FC0001344DB00234404331A6801F110031B018E
:102FD00003441A6000BF7B6F01337B677B6F032B59
:102FE000B1D95CE300237B6758E00023C7F8B43015
:102FF0001CE07B6F5F494FF4FA7202FB03F2D7F8D3
:10300000B4301344002241F823207B6F58494FF419
:10301000FA7202FB03F2D7F8B4301344002241F8ED
:103020002320D7F8B4300133C7F8B430D7F8B43020
:10303000B3F5FA7FDDD30023C7F8B43019E07B6F16
:103040004D495A02D7F8B4301344002241F82320E6
:103050007A6F454913465B0013445B00D7F8B420F0
:103060001344002241F82320D7F8B4300133C7F8C5
:10307000B430D7F8B430032BE1D97B6F3F4A00213D
:1030800042F823107B6F3E4A002142F823107B6FE9
:10309000364A0021D1547B6F01337B677B6F032B52
:1030A000A3D9FCE2374B5B7887F8B330354B9B787C
:1030B000DBB29AB2334BDB78DBB29BB21B029BB222
:1030C00013449BB2A7F8B030B7F8B00097F8B3102C
:1030D0002D4B2E4AFEF7A8FDE1E22A4B5B7887F8DC
:1030E000B330284B9B78DBB299B2264BDB78DBB24E
:1030F0009BB21B029AB297F8B3300A4491B2234AAA
:1031000022F8131097F8B3101F4B204A0020FEF747
:103110008BFDC4E21B4B5B7887F8B330194B9B786F
:10312000DBB21A46174BDB78DBB21B021A44154B95
:103130001B79DBB21B041A44124B5B79DBB21B0612
:1031400013447B6707F1740297F8B33012680E4995
:103150009B000B441A60A2E200237B6725E000BFBE
:1031600040420F0000700340F0DDFF1F047FFF1F8F
:10317000589EFF1F187FFF1FD0BDFF1F98BDFF1F68
:1031800050DEFF1F7CDEFF1F2401FF1F1C01FF1FFD
:103190007B6F0233B64AD35CDAB27B6F91B2B54A29
:1031A00022F813107B6F01337B677B6F032BEFD902
:1031B000AF4B9B79DBB29AB2AF4B1A80AC4BDB7949
:1031C000DBB29AB2AD4B1A80AB4B1988AB4B1B8864
:1031D0001A46A848FEF712F861E2A54B5B7887F81B
:1031E000B330A74B01221A60A64B01221A600021BE
:1031F000A548FDF719FC01220021A448FDF7E3FCD6
:1032000002220021A148FDF7A3FC022000F0E4FE09
:1032100003461D464FF00006AB46B4461BEB0B03BE
:103220004CEB0C049B46A4461BEB050B4CEB060C2D
:103230004FF000014FF000024FEA4C1242EADB620D
:103240004FEA4B111BEB010B4CEB020C1BEB050087
:103250004CEB06018E4A4FF00003FDF741FA03469E
:103260000C4619462246894B0A46C3F80021874B73
:10327000D3F80831854A43F00103C2F808310EE261
:103280007F4B1B68012B17D1804BD3F808317F4A45
:1032900023F00103C2F80831022200217B48FDF728
:1032A00074FC7C4B1B78D9B27B4B7C4A0020FEF728
:1032B000BBFC744B01221A606D4B5B78DAB2754B24
:1032C0001A706B4B9B78DBB29AB2694BDB78DBB23E
:1032D0009BB21B029BB213449AB2714B1A80644B8F
:1032E0001B79DBB21A46624B5B79DBB21B021A44D4
:1032F0005F4B9B79DBB21B041A445D4BDB79DBB27D
:103300001B0613441A46674B1A605D4B1B68012B62
:1033100040F0C481022200215C48FDF719FC022024
:1033200000F05AFE03461D464FF00006AB46B44679
:103330001BEB0B034CEB0C049B46A4461BEB050B51
:103340004CEB060C4FF000014FF000024FEA4C121C
:1033500042EADB624FEA4B111BEB010B4CEB020C18
:103360001BEB05004CEB0601494A4FF00003FDF74B
:10337000B7F903460C4619462246444B0A46C3F8A1
:103380000021424BD3F80831404A43F00103C2F810
:10339000083183E1364B1B79DBB21A46344B5B793B
:1033A000DBB21B021A44324B9B79DBB21B041A447A
:1033B0002F4BDB79DBB21B0613441A463A4B1A60DB
:1033C0006DE1324BD3F80831304A23F00103C2F8E3
:1033D0000831022200212D48FDF7D7FB00212A48A1
:1033E000FDF7FCFA97F8B3102B4B2C4A0020FEF7A0
:1033F0001BFC244B00221A60214B00221A604EE174
:103400004FF00003C7F8A83000237B6723E0274B69
:103410001B881A46264B1B6813431846FDF754FEBB
:10342000244B9A6B7B6F91B2234A22F813107B6F67
:10343000012B0DD97B6F204A32F8133007EE903AFA
:10344000F8EE677A97ED2A7A77EE277AC7ED2A7A2F
:103450007B6F01337B677B6FB3F5007FD7D397ED2D
:103460002A7ADFED166AC7EE267AC7ED2A7A16E1C8
:103470007CDEFF1F087FFF1F107FFF1F127FFF1FD3
:10348000CCBDFF1FC4BDFF1F0010024000700340F1
:1034900040420F00C8BDFF1F2401FF1F1C01FF1F7A
:1034A000B8BDFF1FBCBDFF1FC0BDFF1F84DEFF1FD7
:1034B000E0EAFF1F00C0024088DEFF1F0000FF435C
:1034C000794B5B7887F8B330774B9B78DBB29AB255
:1034D000754BDB78DBB29BB21B029BB213449BB2F1
:1034E000A7F8B030B7F9B030002B04DBB7F9B03033
:1034F000B3F5805F03DB40F6FF73A7F8B03097F8B1
:10350000B330022B0FD0032B19D0012B23D1B7F9E5
:10351000B03003F5A0431A46644B1B6813431846AA
:10352000FDF7D2FD23E0B7F9B03003F500431A46AA
:103530005E4B1B6813431846FDF7C6FD17E0B7F94D
:10354000B03003F530431A46584B1B6813431846F6
:10355000FDF7BAFD0BE0B7F9B03003F500531A469A
:10356000524B1B6813431846FDF7AEFD00BF96E0B3
:10357000022000F031FD03461D464FF000062B46A9
:1035800034464FF000014FF00002620142EAD3627C
:1035900059010B4614465B1B64EB06044FF0000117
:1035A0004FF00002620242EAD35259020B4614461F
:1035B0005B1944EB06044FF000014FF00002A2013A
:1035C00042EA93629901C91A62EB04024B1942EB79
:1035D000060418462146364A4FF00003FDF780F8EE
:1035E00003460C4619462246324B0A46C3F80021D0
:1035F000304BD3F808312F4A43F00103C2F80831A9
:103600002D4B00221A8000237B672EE02B4B0122DA
:103610001A802A4B1988284B1B881A462848FDF720
:10362000EDFD00BF234BD3F80C31002BFAD0012263
:1036300000212048FDF7C7FA204B00221A801F4BBB
:1036400019881D4B1B881A461D48FDF7D7FD00BF82
:10365000184BD3F80C31002BFAD001220021154869
:10366000FDF7B1FA7B6F01337B677B6F092BCDD9F7
:10367000104BD3F808310F4A23F00103C2F8083188
:103680000DE0FDF74DFE0AE00E4B00221A6006E049
:1036900000BF04E000BF02E000BF00E000BF0A4B33
:1036A00000221A60FEF7DFBF7CDEFF1F00E5FF1F70
:1036B00040420F0000700340127FFF1F107FFF1F6A
:1036C000087FFF1F74DEFF1F78DEFF1F80B483B00A
:1036D00000AF78600B4B03F5805304331B6823F075
:1036E00040527B681B0703F0405306491A4301F51B
:1036F000805304331A6000BF0C37BD465DF8047B6D
:10370000704700BF0070044080B483B000AF7860A1
:103710000B4B03F5805304331B6823F440127B6882
:103720001B0503F4401306491A4301F58053043383
:103730001A6000BF0C37BD465DF8047B704700BFC0
:103740000070044080B483B000AF78600B4B03F589
:10375000805304331B6823F400227B68DB0403F4EA
:10376000002306491A4301F5805304331A6000BF51
:103770000C37BD465DF8047B704700BF0070044005
:1037800080B483B000AF78600B4B03F580530433F3
:103790001B6823F480527B681B0303F480530649A3
:1037A0001A4301F5805304331A6000BF0C37BD463D
:1037B0005DF8047B704700BF0070044080B483B0A4
:1037C00000AF78600A4B03F5805304331B6823F085
:1037D000E0027B685B01DBB205491A4301F58053C7
:1037E00004331A6000BF0C37BD465DF8047B704798
:1037F0000070044080B400AF054B03F582530433DE
:103800004FF092721A6000BFBD465DF8047B7047AE
:103810000070044080B483B000AF7860044A7B68D5
:10382000136000BF0C37BD465DF8047B704700BFD6
:1038300084EBFF1F80B483B000AF0346FB710B4BDA
:103840001B78DBB223F03803DAB2FB79DB00DBB2A2
:1038500003F03803DBB205491343DBB20B7000BF42
:103860000C37BD465DF8047B704700BF0040064042
:1038700080B500AFFFF7BEFF194800F0C5FE194B39
:103880001846FFF7C7FF022301210122184600F066
:10389000EFFD00231846FFF7CDFF0023124A002159
:1038A000184600F053FF114800F03AFC104B114A43
:1038B0001A6010494FF4A02000F04EFC0220FFF7E0
:1038C00023FF0020FFF73EFF0220FFF7FFFE00204E
:1038D000FFF774FF0120FFF753FF00BF80BD00BF5B
:1038E000FC8D000080F0FA02F08D0000F48D0000E5
:1038F0006001FF1F000E270780B485B000AF78601D
:103900007B681B0C03F1804303F58E23FB60FB688F
:1039100019687B689BB201229A40FB680A431A60CF
:1039200000BF1437BD465DF8047B704780B586B094
:1039300000AFF860B9607A607B68002B05D1094B55
:10394000094AF521094803F0E5FABB689B00FA68CB
:1039500013447B617B697A6812881A8000BF18372C
:10396000BD4680BD80860000048E00008886000071
:1039700080B485B000AFF860B9601346FB71FB6896
:10398000BA6853F8223023F4E062FB791B0203F497
:10399000E06342EA0301FB68BA6843F8221000BF03
:1039A0001437BD465DF8047B7047000080B500AF5A
:1039B00000F06AF82B48FFF79FFF2B48FFF79CFFAA
:1039C0002A48FFF799FF2A48FFF796FF2948FFF793
:1039D00093FF032218212848FFF7CAFF0322192169
:1039E0002548FFF7C5FF022200212448FFF7C0FF4A
:1039F000022201212148FFF7BBFF022202211F48BA
:103A0000FFF7B6FF022203211C48FFF7B1FF022295
:103A100003211B48FFF7ACFF022202211848FFF7E1
:103A2000A7FF012201211748FFF7A2FF012202216F
:103A30001448FFF79DFF012200211148FFF798FF6E
:103A4000012205210E48FFF793FF012207210C48B0
:103A5000FFF78EFF012209210948FFF789FF00BF08
:103A600080BD00BF090038100A0038100C00381063
:103A70000B0038100D00381000D0044000C0044086
:103A800000B004400090044080B586B000AF2E48DE
:103A9000FFF732FF2D48FFF72FFF2D4B1B88BB820E
:103AA00007F114031A4615212A4802F0D3FC284BCB
:103AB0001B883B8207F110031A461621254802F0A5
:103AC000C9FC234B1B88BB8107F10C031A461A2142
:103AD000214802F0BFFC00233B813B7A43F0040302
:103AE0003B727B7A012262F302037B7207F10803C7
:103AF0001A4615211948FFF719FF0023BB803B79AF
:103B000043F004033B717B79012262F302037B7172
:103B10003B1D1A4616211148FFF708FF00233B8082
:103B20003B7843F004033B707B78012262F302038D
:103B30007B703B461A461A210948FFF7F7FE00BF83
:103B40001837BD4680BD00BF0A0038100D00381080
:103B5000E486000040F00F4000F10F4000A0044058
:103B600000D0044080B485B000AF78607B681B0C47
:103B700003F1804303F58E23FB60FB6819687B68C3
:103B80009BB201229A40FB680A431A6000BF1437B7
:103B9000BD465DF8047B704780B485B000AF7860A7
:103BA0007B681B0C03F1804303F58E23FB60FB68ED
:103BB00019687B689BB2012202FA03F3DA43FB68BF
:103BC0000A401A6000BF1437BD465DF8047B704799
:103BD00080B483B000AF7860084B1B6823F44022A8
:103BE0007B689B0403F44023044913430B6000BF2C
:103BF0000C37BD465DF8047B704700BF0070044081
:103C000080B483B000AF78600B4B03F5805304336E
:103C10001B6823F440327B681B0403F440330649DD
:103C20001A4301F5805304331A6000BF0C37BD46B8
:103C30005DF8047B704700BF0070044080B485B01D
:103C400000AF786039607B681B78FB73FB7B03F007
:103C50005F03FB733B681A78FB7B1343FB737B6842
:103C6000FA7B1A7000BF1437BD465DF8047B7047BD
:103C700080B485B000AF78600B46FB707B681B7822
:103C8000FB73FB7B23F00F03FB73FA7BFB7813437F
:103C9000FB737B68FA7B1A7000BF1437BD465DF872
:103CA000047B704780B582B000AF194B1B7BDBB241
:103CB00003F00303012B12D0012B02D3022B1CD0E3
:103CC0001EE0144B1B68002B05D1134B134ADA215D
:103CD000134803F01FF90F4B1B687B6013E0114B77
:103CE0001B68002B05D1104B0C4ADF210C4803F058
:103CF00011F90C4B1B687B6005E00C4B7B6002E00C
:103D000000237B6000BF7B6818460837BD4680BD36
:103D10000040064084EBFF1FE8860000188E00007C
:103D2000F486000080EBFF1F20870000006CDC029F
:103D300080B582B000AFFFF7B5FF78607B68002BDD
:103D400001D17B6851E02B4B1B78DBB2DB08DBB287
:103D500003F00703FB70FB787A6822FA03F37B60B9
:103D6000244B5B78DBB21B09DBB203F00303BB70AF
:103D7000204B1B7BDBB203F003037B70BB78002B73
:103D800002D07B78002B02D07B78022B2BD1FB78E2
:103D9000072B25D801A252F823F000BFBD3D00003B
:103DA000BD3D0000BD3D0000BD3D0000BD3D00002B
:103DB000BD3D0000C53D0000D33D00007B685B09B0
:103DC0007B6011E07B680C4AA2FB03231B097B602C
:103DD0000AE07B68094AA2FB0323DB087B6003E05F
:103DE00000237B6000E000BF7B6818460837BD46B3
:103DF00080BD00BF00400640CDCCCCCCABAAAAAA67
:103E000080B400AF0C4B9B79DBB203F00103002BB5
:103E100002D10A4B1B6809E0094B1A68064B1B7A52
:103E2000DBB25B0803F0070322FA03F31846BD4632
:103E30005DF8047B704700BF004006405801FF1F3B
:103E40005C01FF1F80B500AF074B9B79DBB203F02D
:103E50001003002B03D1FFF76BFF034601E0034B78
:103E60001B68184680BD00BF004006405801FF1F78
:103E700080B500AFFFF716FF0346184680BD00006F
:103E800080B485B000AF78607B6849F697029342B2
:103E900002D80023FB7308E07B68074A934202D8EC
:103EA0000123FB7301E00223FB73FB7B18461437ED
:103EB000BD465DF8047B704700127A0080B500AF04
:103EC0000B4B1B78DBB25BB2002B0DDA094B1B6886
:103ED000002B06D1084B094A40F26311084803F051
:103EE00019F8044B1B6800E00023184680BD00BF92
:103EF0000050064084EBFF1FE8860000308E000073
:103F0000F486000080B582B000AF194B1B689B0C93
:103F100003F00303022B0FD0032B1CD0002B1ED168
:103F2000FFF7CCFF0346B3F5004F02D14FF4004337
:103F300000E000237B6015E00E4B1B68002B06D1D0
:103F40000D4B0E4A4FF4BE710D4802F0E3FF094BD2
:103F50001B687B6006E04FF47A737B6002E000230D
:103F60007B6000BF7B6818460837BD4680BD00BF38
:103F70000070044080EBFF1F20870000488E000087
:103F8000F486000080B582B000AF114B03F580537A
:103F900004331B681B0C03F00303012B08D0012B17
:103FA00002D3032B08D00AE000F088F9786009E01A
:103FB00000F0ECF9786005E0064B7B6002E000233E
:103FC0007B6000BF7B6818460837BD4680BD00BFD8
:103FD00000700440006CDC0280B584B000AF034682
:103FE000FB71FB79132B00F28E8001A252F823F0B3
:103FF000414000004140000061400000814000005D
:10400000A140000007410000C1400000C94000007D
:10401000D14000000741000007410000D9400000E6
:10402000E1400000E9400000F140000007410000CD
:104030000741000007410000F9400000FF40000078
:1040400000F00AF90246344B03F5825304331B682F
:104050001B0F03F00F030133B2FBF3F3FB6055E0DA
:1040600000F0FAF802462C4B03F5825304331B6828
:104070001B0E03F00F030133B2FBF3F3FB6045E0CB
:1040800000F0EAF80246244B03F5825304331B6820
:104090001B0D03F00F030133B2FBF3F3FB6035E0BC
:1040A00000F0DAF802461C4B03F5825304331B6818
:1040B0001B0C03F00F030133B2FBF3F3FB6025E0AD
:1040C000FFF760FFF86021E0FFF71CFFF8601DE0DC
:1040D000FFF7F4FEF86019E000F040F9F86015E031
:1040E00000F02AF9F86011E000F0E8F8F8600DE05F
:1040F00000F04CF9F86009E0084BFB6006E04FF473
:104100007A73FB6002E00023FB6000BFFB68184687
:104110001037BD4680BD00BF00700440006CDC025B
:1041200080B582B000AF78600A497B685A6801F5B3
:10413000825304331A607B681B781846FFF760FDD2
:104140007B685B781846FFF743FD00BF0837BD4624
:1041500080BD00BF0070044080B584B000AF7860BF
:1041600039600123FB733548FFF716FD7B68002B90
:104170000CD1334B03F5805304331B68304923F4CF
:10418000802201F5805304331A603DE03B682D4ADC
:1041900093421AD02B4A934203D82B4A93421BD006
:1041A00021E02A4A934209D0294A93421BD1244B49
:1041B00003F58253083309221A6017E0204B03F5F8
:1041C0008253083302221A6010E01D4B03F582531C
:1041D000083305221A6009E0194B03F582530833AE
:1041E00000221A6002E00023FB7300BF144B03F5AA
:1041F000805304331B6823F4E02211497B681A437F
:1042000001F5805304331A600C48FFF7ABFC7B6860
:10421000B3F5E02F0DD10F4B032283F844210D4B52
:1042200093F84031DBB20B4A63F07F03DBB282F8D4
:104230004031FB7B18461037BD4680BD120034105C
:104240000070044000A24A04006CDC0200D8B805EB
:10425000000E27070020074080B582B000AF164B44
:104260009B79DBB29B0803F003033B603B68032BA5
:104270001AD801A252F823F091420000994200009E
:10428000A14200008942000000F080F878600EE052
:1042900000F014F878600AE0FFF7B2FD786006E0FD
:1042A000FFF700FD786002E000237B6000BF7B68C1
:1042B00018460837BD4680BD0040064080B582B034
:1042C00000AF1B4B5B78DBB203F00203002B06D17F
:1042D000174B9B79DBB203F02003002B01D00023A6
:1042E00022E0FFF7AFFD78607B68002B01D17B688F
:1042F0001AE00F4BDB78DBB25B09DBB203F00303A0
:10430000FB700B4BDB78DBB2DB09DBB203F00103A4
:10431000BB70FA78BB7807495200134431F8133068
:104320001A467B6803FB02F318460837BD4680BD7A
:1043300000400640608E000080B500AF064B1B7841
:10434000DBB203F00203002B01D1002302E0FFF7F0
:1043500057FD0346184680BD0040064080B582B038
:1043600000AFFFF76FFD78607B68002B08D0FFF788
:1043700073FF0346DB087A689A4201D87B6800E045
:10438000002318460837BD4680BD000080B582B0C6
:1043900000AF184B9B79DBB203F04003002B01D137
:1043A000002322E0FFF764FD78607B68002B06D1D4
:1043B000114B124A40F2DF21114802F0ABFD0D4BC8
:1043C0001B79DBB203F01F0301337A68B2FBF3F30E
:1043D0007B60084B5B79DBB203F01F0303F118022B
:1043E0007B6802FB03F37B607B6818460837BD4699
:1043F00080BD00BF0040064030870000708E000086
:10440000F486000080B485B000AF0346FB71174B03
:104410001B7BDBB203F00302FB799A4202D001233B
:10442000FB7301E00023FB73104B1B7BDBB223F01B
:104430000303DAB2FB7903F00303DBB20B49134346
:10444000DBB20B73FB7B002B09D040F2DC53BB606B
:1044500000E000BFBB685A1EBA60002BF9D10023F0
:1044600018461437BD465DF8047B7047004006408F
:1044700080B485B000AF0346FB710B46BB71134699
:104480007B713B4B9B79DBB29B0803F00303FB6022
:10449000374B9B79DBB203F00103FB72344B1B7A81
:1044A000DBB25B08DBB203F00703BB727A79BB7A3D
:1044B0009A422CD0FB7A012B19D1FB68012B06D034
:1044C0002B4B1B78DBB203F00203002B0FD0284BE1
:1044D0005B78DBB2264A23F00103DBB2537000BFE6
:1044E000234B9B79DBB203F00103002BF8D1204B67
:1044F0001B7ADBB223F02F03DAB27B795B00DBB2ED
:1045000003F00E03DBB21A491343DBB20B72184BF4
:104510005B78DBB223F00103DAB2BB7903F001036D
:10452000DBB213491343DBB24B70114B1B78DBB288
:1045300023F00303DAB20E49FB791343DBB20B70AD
:10454000FB68012B04D0FB7903F00203002B08D099
:1045500000BF074B9B79DBB203F00102BB799A42A3
:10456000F7D1002318461437BD465DF8047B704729
:104570000040064080B584B000AF78607B68002BB7
:1045800006D11D4B1D4A40F2D5311D4802F0C2FC38
:104590000023FB737B685B7803F01F03DAB2FB7BBD
:1045A0001343FB73174AFB7B1371164B5B79DBB22A
:1045B00023F01F03DAB27B689B7803F01F03DBB2A2
:1045C00010491343DBB24B710E4B1B79DAB27B6897
:1045D0001B781343DBB20B4A43F04003DBB2137189
:1045E00000BF084B9B79DBB203F04003002BF8D0EF
:1045F00000BF1037BD4680BD3C870000848E0000A0
:10460000F48600000040064080B584B000AF7860BA
:104610007B681B681846FFF733FC0346FB737B6817
:104620001B7919461948FFF723FB7B6806331946A7
:104630001648FFF703FB164B5B78DBB223F03C0315
:10464000DAB2FB7B1B01DBB203F03003DBB21343B6
:10465000DAB27B685B790E491343DBB24B707B683F
:104660005B79002B0DD0094B1B78DBB25BB2002BC2
:1046700007DA00BF064B9B79DBB203F00203002B85
:10468000F8D000BF1037BD4680BD00BF00500640C7
:104690000040064080B582B000AF03463960FB7130
:1046A0003B68002B06D1254B254A40F2277125484F
:1046B00002F030FC244B5B78DBB2234A23F0020388
:1046C000DBB25370204B1B78DBB203F03B03DBB251
:1046D0001D4A63F07F03DBB2137000BF1A4B9B7956
:1046E000DBB203F01C03082BF8D1174B5B79DBB26C
:1046F000154A23F04003DBB2537100BF124B9B7984
:10470000DBB203F02003002BF8D13868FFF732FF4B
:104710000D4B5B79DBB20C4A43F04003DBB25371C3
:1047200000BF094B9B79DBB203F02003002BF8D0CC
:10473000002318460837BD4680BD00BF3C870000F7
:10474000988E0000F48600000040064080B582B0DC
:1047500000AF03463A60FB710B46BB713B68002B10
:1047600006D1134B134A4FF40461134802F0D2FBF5
:10477000FB791846FFF746FEBB7939681846FFF704
:1047800089FF0E4B1B78DBB20C4A03F03F03DBB210
:10479000137000BF094B9B79DBB29B0803F0030346
:1047A000032BF7D1002318460837BD4680BD00BF54
:1047B0003C870000AC8E0000F486000000400640FC
:1047C00080B485B000AF78607B681B0C03F1804338
:1047D00003F58E23FB60FB6819687B689BB201229E
:1047E0009A40FB680A431A6000BF1437BD465DF863
:1047F000047B704780B584B000AF78600023FB6015
:1048000006E00D4A7B68934206D0FB680133FB60EB
:10481000FB68002BF5D000E000BFFB68002B05D043
:10482000064B074A3B21074802F074FBFB68184619
:104830001037BD4680BD00BF001002404487000015
:10484000C08E00006C87000080B582B000AF786039
:104850007868FFF7CFFF044B1846FFF7B1FF00BFA2
:104860000837BD4680BD00BF01003C1080B485B054
:1048700000AF78607B681B0C03F1804303F58E2347
:10488000FB60FB6819687B689BB201229A40FB6859
:104890000A431A6000BF1437BD465DF8047B7047B9
:1048A00080B483B000AF78600B46FB70FB78002BC0
:1048B00006D07B681B6823F480427B681A6005E0A1
:1048C0007B681B6843F480427B681A6000BF0C372A
:1048D000BD465DF8047B704780B483B000AF78605C
:1048E0000B46FB707B681B6823F00042FB78DB07FC
:1048F0001A437B681A6000BF0C37BD465DF8047B25
:10490000704780B483B000AF78607B681B68DB0FB2
:10491000DBB218460C37BD465DF8047B704780B4A7
:1049200083B000AF78607B681B6823F001027B686E
:104930001A6000BF0C37BD465DF8047B704780B439
:1049400083B000AF78607B681B6843F001027B682E
:104950001A6000BF0C37BD465DF8047B704700004D
:1049600080B584B000AF78600023FB6009E00E4A98
:10497000FB6852F823307A689A4206D0FB6801330C
:10498000FB60FB68022BF2D900E000BFFB68022B42
:1049900005D9064B064A8C21064802F0BBFAFB6893
:1049A00018461037BD4680BD748F00009887000000
:1049B0008C8F0000BC87000080B584B000AF7860A9
:1049C0000B46FB707868FFF7CBFFF860044AFB6882
:1049D0001344FA781A7000BF1037BD4680BD00BF7F
:1049E0009CE2FF1F80B588B002AFF860B9607A60C2
:1049F000BB68002B05D1564B564ABB21564802F0E6
:104A000089FAF868FFF7ACFF0246544B53F822309E
:104A10001846FFF72BFF0121F868FFF741FFF86800
:104A2000FFF78DFF0121F868FFF756FFFB681B6851
:104A300023F08A4323F44C537B61BB689B7F9B0725
:104A400003F080427B691A43BB6893F820309B06D1
:104A500003F080631A43BB68DB7F1B0603F080739F
:104A60001A43BB6893F821301B0203F440731A43C6
:104A7000FB681A60BB68197FBB685B7F1A46F868E1
:104A800000F070F8BB681978BB685A687B68F868F2
:104A900000F090F80346002B05D1314B2D4AD4216C
:104AA0002D4802F037FABB681B78FA6802339B0086
:104AB00013445B6823F0FE437B61BB689B68013B4A
:104AC000DB0603F0F0427B691A43BB681B7B9B0645
:104AD00003F080631A43BB685B7B5B0603F00073E3
:104AE0001A43BB689B7B1B0603F08073B968097887
:104AF00008461A43F968831C9B000B445A60BB6844
:104B00001978BB681B6900937B680122F86800F084
:104B10004FF9BB681978BB685B6900937B68022218
:104B2000F86800F045F9BB681978BB689B69009389
:104B30007B680322F86800F03BF90021F868FFF772
:104B40003BFFF868FFF7EBFE00BF1837BD4680BD9E
:104B5000E8870000A08F0000BC870000808F000065
:104B6000F887000080B485B000AF78600B46FB701A
:104B70001346BB707B681B68FB60BB78012B07D1B9
:104B8000FB781B0403F47C13FA681343FB6007E013
:104B9000FB781B0403F47C13DB43FA681340FB60CF
:104BA0007B68FA681A6000BF1437BD465DF8047B65
:104BB0007047000080B590B000AFF8607A603B604D
:104BC0000B46FB72F868FFF79CFE034683F0010377
:104BD000DBB2002B01D0002372E07B68FB614FF059
:104BE000FF333B620023BB6300233B630123BB62B3
:104BF00000237B620023FB6341E000237B6335E0FD
:104C00000123FB6229E03B68FA6A02FB03F22E49AA
:104C1000FB6B51F823302D48796B50F8211001FBC4
:104C200003F3B2FBF3F3BB61FA69BB699A4211D398
:104C3000FA69BB69D31A7B613A6A7B699A4209D9DE
:104C40007B693B62FB6BBB637B6B3B63BB697B62DA
:104C5000FB6ABB62FB6A0133FB62FB6A022B02D870
:104C60003B6A002BCFD17B6B01337B637B6B0F2BBC
:104C700002D83B6A002BC3D1FB6B0133FB63FB6B98
:104C8000032B02D83B6A002BB7D1FB7AFA680233B8
:104C90009B0013445A680E4B13403B61BB6A013BB7
:104CA000DA073B691A43BB6B1B0442EA0301FB7A38
:104CB0003A6B0A43F96802339B000B445A607B6AE3
:104CC00018464037BD4680BDD48E0000E48E0000FB
:104CD000F0FFFC7F80B584B000AFF8607A603B6085
:104CE0000B46FB72F868FFF70CFE0346002B59D009
:104CF0003B7E022B1FD0032B39D0012B00D052E07A
:104D0000FB7AFA6802339B0013445B6823F4400388
:104D100023F470437A68920502F4400243EA0201E8
:104D20003B681B039AB2FB7A0A43F96802339B0083
:104D30000B445A6037E0FB7AFA6802339B00134455
:104D40005B6823F4401323F470637A68120502F45D
:104D5000401243EA02013B681B0203F47062FB7AD3
:104D60000A43F96802339B000B445A601BE0FB7A4C
:104D7000FA6802339B0013445B6823F4402323F05A
:104D8000F0037A68920402F4402243EA02013B688D
:104D90001B01DAB2FB7A0A43F96802339B000B4429
:104DA0005A6000E000BF00BF1037BD4680BD000064
:104DB00080B590B002AFF8607B600B46FB72134683
:104DC000BB72F868FFF79DFD034683F00103DBB279
:104DD000002B01D0002373E04FF0FF333B6203232D
:104DE0003B630F23BB62384A7B68B2FBF3F337495E
:104DF0003A6B51F8222002FB03F33549BA6A51F8A5
:104E0000222002FB03F39B087B62324A7B68B2FBE1
:104E1000F3F35B00FB61FA693B6C9A4209D3F97AC0
:104E2000BB7A009300230022F868FFF753FFFB6969
:104E300046E000237B6334E00023FB6228E0224A43
:104E40007B68B2FBF3F321497A6B51F8222002FB15
:104E500003F31F49FA6A51F8222002FB03F39B086F
:104E6000BB61BA693B6C9A420FD3BA693B6CD31AE7
:104E70007B613A6A7B699A4207D97B693B627B6BAB
:104E80003B63FB6ABB62BB697B62FB6A0133FB620B
:104E9000FB6A0F2B02D83B6A002BD0D17B6B01330E
:104EA0007B637B6B032B02D83B6A002BC4D1F97A5E
:104EB000BB7A0093BB6A3A6BF868FFF70BFF7B6A1B
:104EC00018463837BD4680BD00286BEE248F0000A1
:104ED000348F000000CA9A3B80B582B000AF786082
:104EE00039607868FFF70DFD0346002B05D0084BAD
:104EF0001B6839687868984704E0064B1B68396876
:104F000078689847BFF34F8F00BF0837BD4680BD14
:104F100094E2FF1F98E2FF1F80B500AF094B1B68AA
:104F2000002B06D1084B094A40F64901084801F018
:104F3000F1FF044B1B6819460648FFF7CDFF00BF81
:104F400080BD00BF88E2FF1F30880000B08F0000E6
:104F5000BC87000000C0024080B500AF094B5B6811
:104F6000002B06D1084B094A40F65101084801F0D0
:104F7000D1FF044B5B6819460648FFF7ADFF00BF41
:104F800080BD00BF88E2FF1F40880000C88F00007E
:104F9000BC87000000D0024080B500AF094B9B6881
:104FA000002B06D1084B094A40F65901084801F088
:104FB000B1FF044B9B6819460648FFF78DFF00BF01
:104FC00080BD00BF88E2FF1F50880000E08F000016
:104FD000BC87000000C00A4080B483B000AF034625
:104FE000FB7197F90730002B0BDBFB7903F01F02F5
:104FF000074997F907305B09012000FA02F241F8EE
:10500000232000BF0C37BD465DF8047B704700BF0E
:1050100000E100E080B485B000AF78607B681B0CD5
:1050200003F1804303F58E23FB60FB6819687B68FE
:105030009BB201229A40FB680A431A6000BF1437F2
:10504000BD465DF8047B704780B582B000AF034673
:10505000FB7197F9073013F1800F01D1012305E0AF
:1050600097F907301846FFF7B7FF002318460837AF
:10507000BD4680BD80B483B000AFEFF310833B60CA
:105080003B687B6072B67B6818460C37BD465DF89E
:10509000047B704780B485B000AF78607B68FB60AC
:1050A000FB6883F3108800BF1437BD465DF8047BAE
:1050B0007047000080B584B000AF78600023FB60CB
:1050C00006E00D4A7B68934206D0FB680133FB6023
:1050D000FB68002BF5D000E000BFFB68002B05D07B
:1050E000064B074A4421074801F014FFFB681846A5
:1050F0001037BD4680BD00BF0080004060880000C2
:10510000089000008488000080B584B000AFF8608B
:10511000B9607A60BB680F2B05D94E4B4E4A5221BD
:105120004E4801F0F7FE7B68002B05D14C4B4A4AF4
:1051300053214A4801F0EEFE7B6803F01F03002B69
:1051400005D0484B444A5421444801F0E3FE7B68B3
:105150001A68F968BB6880335B010B441A607B688E
:105160009B8899B2FA68BB6880335B0113440433AF
:105170000A461A807B68DB8899B2FA68BB6880337C
:105180005B01134406330A461A807B689A68F96803
:10519000BB685B010B4403F5805308331A607B68DE
:1051A000DA68F968BB685B010B4403F580530C3384
:1051B0001A607B681A69F968BB685B010B4403F5E8
:1051C000805310331A607B689B8A99B2FA68BB6877
:1051D0005B01134403F5805314330A461A807B683D
:1051E000DB8A99B2FA68BB685B01134403F580530C
:1051F00016330A461A807B689A69F968BB685B01B6
:105200000B4403F5805318331A60FA68BB685B01DE
:10521000134403F580531C3300221A807B689B8B58
:1052200099B2FA68BB685B01134403F580531C33E1
:105230000A461A807B68DB8B99B2FA68BB685B010F
:10524000134403F580531E330A461A8000BF1037FB
:10525000BD4680BDB08800001C900000848800001E
:10526000DC880000E888000080B584B000AF78607A
:1052700039603B68002B05D1204B214A722121481F
:1052800001F048FE7868FFF715FF1F4B1846FFF73F
:10529000C1FE7B680022DA607B684FF0FF325A6201
:1052A0007B684FF0FF32DA627B681B68FB60FB684B
:1052B00023F05603FB603B689B789B0003F00402DD
:1052C0003B685B781B0103F010031A433B681B78B3
:1052D0009B0103F040031A433B68DB785B0003F05B
:1052E00002031A43FB68134343F08003FB607B68AF
:1052F000FA681A6000BF1037BD4680BD08890000FB
:105300002C900000848800000100401080B582B01D
:1053100000AF78607B68002B05D10D4B0D4AA621AC
:105320000D4801F0F7FD04220021786801F05AFED3
:105330007B6800229A707B6801225A707B68002289
:105340001A707B680022DA7000BF0837BD4680BD46
:1053500008890000389000008488000080B584B07F
:1053600000AFF860B9607A60FB68002B06D1394B5A
:10537000394A4FF4DC71394801F0CCFDFB6803F089
:105380001F03002B06D0364B334A40F2B911334885
:1053900001F0C0FDBB68002B06D1324B2E4A4FF402
:1053A000DD712E4801F0B6FD7B6803F01F03002B72
:1053B00006D02D4B284A40F2BB11284801F0AAFD27
:1053C000BB681A68FB681A60BB685A68FB681A6198
:1053D000BB681B7A9BB21B029BB203F4E0639AB2D8
:1053E000BB685B7A9BB203F007039BB213439AB28C
:1053F000FB68DA80BB68B3F90A309AB2FB689A801E
:10540000BB68B3F90C309AB2FB689A82BB681A6920
:10541000FB689A60BB685B699AB2FB68DA82BB681A
:105420005B699AB2FB68DA837B68002B0DD07A68DF
:10543000FB689A61FB689B8B9BB243F010039BB2A5
:1054400023F008039AB2FB689A8300BF1037BD4669
:1054500080BD00BFDC880000509000008488000000
:10546000E8880000088900001889000080B588B02D
:1054700000AFF8600B467A60FB72FB68002B06D128
:10548000774B784A40F20721774801F043FDFB68EB
:1054900003F01F03002B06D0744B724A4FF40271C5
:1054A000714801F037FD7B680F2B06D9704B6D4AB0
:1054B00040F209216C4801F02DFDFB7A012B3AD115
:1054C000FB68DB8A9BB26FEA43436FEA53439AB2AD
:1054D000FB68DA82FB68DB8B9BB26FEA43436FEABF
:1054E00053439AB2FB68DA83FB68DB8A9BB223F4EE
:1054F000F0537B617B689BB25B029BB203F4F05379
:105500007A6913437B617B699AB2FB68DA82FB6834
:10551000DB8B9BB223F4F0537B617B689BB25B0215
:105520009BB203F4F0537A6913437B617B699AB2AF
:10553000FB68DA838FE0FB7A022B1BD1FB689B8B25
:105540009BB243F020039AB2FB689A83FB689B8B63
:105550009BB223F47063BB617B689BB21B029BB25E
:1055600003F470639AB2BB699BB213439AB2FB68AF
:105570009A8370E0FB7A032B55D1FB689B8B9BB21F
:1055800043F020039AB2FB689A83FB689B8B9BB223
:1055900023F47063FB617B689BB21B029BB203F434
:1055A00070639AB2FB699BB213439AB2FB689A8309
:1055B000FB68DB8A9BB26FEA43436FEA53439AB2BC
:1055C000FB68DA82FB68DB8B9BB26FEA43436FEACE
:1055D00053439AB2FB68DA83FB68DB8A9BB223F4FD
:1055E000F053FB617B689BB25B029BB203F4F05308
:1055F000FA691343FB61FB699AB2FB68DA82FB68C4
:10560000DB8B9BB223F4F053FB617B689BB25B02A4
:105610009BB203F4F053FA691343FB61FB699AB23E
:10562000FB68DA8317E0FB68DB8A9BB2C3F30E03E7
:105630009AB2FB68DA82FB68DB8B9BB2C3F30E0382
:105640009AB2FB68DA83FB689B8B9BB223F0200342
:105650009AB2FB689A8300BF2037BD4680BD00BF69
:10566000DC8800006C90000084880000E88800005E
:105670003C89000080B582B000AF786039607B68FB
:10568000002B06D1124B134A4FF41871124801F047
:1056900041FC3B6803F00203002B07D07B689B8B27
:1056A0009BB243F002039AB27B689A833B6803F093
:1056B0000403002B07D07B689B8B9BB243F0040351
:1056C0009AB27B689A8300BF0837BD4680BD00BF91
:1056D000DC880000849000008488000080B584B0DD
:1056E00000AFF860B9607A60BB680F2B06D9134B26
:1056F000134A40F2DA21134801F00CFC7B6803F0F6
:105700000103002B03D0BB68DAB2FB681A777B6811
:1057100003F00203002B03D0BB68DAB2FB689A7770
:105720007B6803F00403002B03D0BB68DAB2FB688C
:10573000DA7700BF1037BD4680BD00BFB0880000DB
:10574000A09000008488000080B500AF0548FFF7F6
:10575000B1FC0346DAB2044B1A70034B1B781846AF
:1057600080BD00BF00800040E0E2FF1F80B588B030
:1057700000AFF860B9607A60FB68002B06D1344B4B
:10578000344A40F20B31344801F0C4FB7B680F2BE4
:1057900006D9324B2F4A4FF443712F4801F0BAFB20
:1057A00018220021F86801F01DFCFB68BA689A60B5
:1057B0007B68DAB2FB681A74B868FFF77BFCF861A3
:1057C000FFF7C2FF0346FB76FB7EFA69D31A1B0183
:1057D0007A6813447B6122497B69FA6841F8232087
:1057E000204AFB691B011A447B68134493F900307B
:1057F0001846FFF729FCFB689A68FB681B7C80331E
:105800005B0113443B613B6900221A603B69002243
:105810009A803B690022DA803B6900229A603B69EA
:105820000022DA603B6900221A613B6900229A82F9
:105830003B690022DA823B6900229A613B690022BF
:105840009A833B690022DA8300BF2037BD4680BDC2
:105850006C890000C090000084880000B0880000BF
:10586000A0E2FF1FF88F000080B584B000AFF860A1
:10587000B9607A60FB68002B06D1084B084A40F2F9
:105880005A31084801F046FBFB68BA681A60FB68A9
:105890007A685A6000BF1037BD4680BD6C89000031
:1058A000D49000008488000080B584B000AFF86018
:1058B000B9607A603B60FB68002B06D1AC4BAD4A07
:1058C00040F27A31AC4801F025FBBB68002B06D1D1
:1058D000AA4BA84A40F27B31A74801F01BFB3B686A
:1058E000002B06D1A64BA34A4FF45F71A24801F0EA
:1058F00011FB7B68012B12D07B68022B0FD07B68D9
:10590000042B0CD07B68102B09D07B68202B06D091
:105910009C4B984A40F27D31974801F0FBFABB69F5
:10592000012B12D0BB69022B0FD0BB69042B0CD00A
:10593000BB69102B09D0BB69202B06D0924B8D4A36
:1059400040F27E318C4801F0E5FA3B6AFA69B3FB1C
:10595000F2F2F96901FB02F29B1A002B06D08B4B85
:10596000844A40F27F31844801F0D4FA18220021A1
:10597000F86801F037FB3A68FB685A60BA68FB6860
:105980001A60FB68FA691A613A6AFB69B2FBF3F2C2
:10599000FB685A617B68013B1F2B57D801A252F864
:1059A00023F000BF255A00002D5A00004D5A000078
:1059B000355A00004D5A00004D5A00004D5A000063
:1059C0004D5A00004D5A00004D5A00004D5A00003B
:1059D0004D5A00004D5A00004D5A00004D5A00002B
:1059E0003D5A00004D5A00004D5A00004D5A00002B
:1059F0004D5A00004D5A00004D5A00004D5A00000B
:105A00004D5A00004D5A00004D5A00004D5A0000FA
:105A10004D5A00004D5A00004D5A00004D5A0000EA
:105A2000455A0000FB6800221A7210E0FB68012250
:105A30001A720CE0FB6802221A7208E0FB6804226A
:105A40001A7204E0FB6805221A7200E000BFBB690D
:105A5000013B1F2B56D801A252F823F0DD5A00005B
:105A6000E55A0000055B0000ED5A0000055B0000F0
:105A7000055B0000055B0000055B0000055B0000A6
:105A8000055B0000055B0000055B0000055B000096
:105A9000055B0000055B0000F55A0000055B000097
:105AA000055B0000055B0000055B0000055B000076
:105AB000055B0000055B0000055B0000055B000066
:105AC000055B0000055B0000055B0000055B000056
:105AD000055B0000055B0000FD5A0000FB6800222A
:105AE0005A7210E0FB6801225A720CE0FB68022235
:105AF0005A7208E0FB6804225A7204E0FB6805222F
:105B00005A7200E000BF97F82430032B2AD801A274
:105B100052F823F0255B0000475B0000375B000074
:105B2000575B0000BB691AB2FB689A817B681AB2A6
:105B3000FB685A8117E0FB6800229A817B681AB2E1
:105B4000FB685A810FE0BB691AB2FB689A81FB6857
:105B500000225A8107E0FB6800229A81FB6800223C
:105B60005A8100E000BF00BF1037BD4680BD00BFB6
:105B700008890000E890000084880000A0890000E7
:105B8000B0890000C4890000288A0000908A0000C3
:105B900080B584B000AF78607B68002B06D1294BBC
:105BA000294A40F26941294801F0B4F97B68DB6871
:105BB000002B08D17B681A7C7B689B6802F00F027F
:105BC000D2B2DA7639E07B689A687B681B7C8033D6
:105BD0005B011344FB607B685B7D63F07F03DAB29B
:105BE0007B685A75FB689B69002B26D0FFF742FA49
:105BF000B8607B689B68DA687B681B7C1946012368
:105C00008B401340002B15D1FB689B8B9BB203F09C
:105C10008003002B06D0FB689B8B9BB203F0100324
:105C2000002B07D07B681A7C7B689B6802F00F0210
:105C3000D2B2DA76B868FFF72DFA00BF1037BD464A
:105C400080BD00BF6C8900000091000084880000C6
:105C500090B589B000AF78607B68002B06D1524BBD
:105C6000524A40F2D741524801F054F97B689B6890
:105C70007A68127CDA777B68DB68002B0CD17B6852
:105C80001B68002B08D07B681C687B685968002360
:105C900001227868A04783E07B689A687B681B7C58
:105CA0005B01134403F5805318331B687B617B68E9
:105CB0009A687B681B7C5B01134403F580531C339B
:105CC0001B889BB203F08003002B14BF0123002329
:105CD000FB747B68DB681A467B699B1A7B617B6976
:105CE0005B09FB60FB7C002B02D0FB68FB760EE0BF
